:1000000000800020BD010000690B0000210B0000F2
:10001000210B0000210B0000210B0000210B000030
:10002000210B0000210B0000210B0000690B0000D8
:10003000690B0000210B0000FD1F000001210000E2
:10004000690B0000690B0000690B0000690B0000E0
:10005000690B0000690B0000690B0000690B0000D0
:10006000690B0000690B0000690B0000690B0000C0
:10007000690B0000690B0000690B0000690B0000B0
:10008000690B0000690B0000690B0000690B0000A0
:10009000690B0000690B0000690B0000690B000090
:1000A000690B0000690B0000690B0000690B000080
:1000B000690B0000690B0000690B0000690B000070
:1000C000690B0000690B0000690B0000690B000060
:1000D000690B0000690B0000690B0000690B000050
:1000E000690B0000690B0000690B0000690B000040
:1000F000690B00003D210000690B0000692200002F
:10010000690B000095230000690B0000690B0000DB
:10011000690B0000690B0000690B0000690B00000F
:10012000690B0000690B0000690B0000690B0000FF
:10013000690B0000690B0000690B0000690B0000EF
:10014000690B0000690B0000690B0000690B0000DF
:10015000690B0000690B0000690B0000690B0000CF
:10016000690B0000510F0000690B0000690B0000D3
:10017000690B0000690B0000690B0000690B0000AF
:10018000690B0000690B0000690B0000690B00009F
:10019000690B0000690B0000690B0000690B00008F
:1001A000690B0000690B0000690B0000690B00007F
:1001B000690B0000690B0000690B0000564B4CF204
:1001C000205210B51A804DF628121A8000BF00BFC9
:1001D00000F0CEFC514B4FF010621A60504A9A600A
:1001E000504ADA60504A136813F4807304D14F49BF
:1001F0000B604FF4A85313604D4B1A78110703D5C9
:100200001A7842F008021A704A4B4B492A221A7097
:100210004A4A4B4B8B4204D252F8040F43F8040B6A
:10022000F8E7484B484900228B4202D243F8042B9E
:10023000FAE74649464A002352F8230041F82300D2
:1002400001336F2BF8D1434B434A802103F8011B44
:100250009342FBD1414B3D4A1A60414B8A221A70AE
:10026000A3F5805324225A70A0221A709A7992071B
:10027000FCD59A79D406FCD43A4A937903F00C035E
:10028000082B384BF9D105221A7143225A719A79F9
:100290009006FCD5334A9179324B4906FBD5324A58
:1002A0004FF0817111600521516020221A709A79F6
:1002B00002F00C020C2AFAD12C4B2D4A1A602D4B5D
:1002C0002D4A1A6000225A60072243F8042C2B4A58
:1002D000C3F80C2D62B600F0F1FC144B1B68DA0772
:1002E00005D5274800F088FC264B274A1A60274B83
:1002F0001B785B0609D5234C234B22689A4204D114
:100300001F4800F079FC0023236003F01FFB00F07E
:1003100035FC00F0FDFBFEE70E2005403080044078
:10032000823F04000100002B10D0034014D0034092
:1003300002D0074000E007401C90FF1FA4430000CC
:100340002087FF1F1C90FF1FC494FF1F0082FF1F08
:100350000000000000E400E05FE400E008ED00E0E1
:1003600000500640004006404480044004800440A1
:10037000C010050014E000E03F190100000020203B
:1003800089CFE65D1CE00340A5C3945A00F0074006
:10039000FFFFFFFFFFFFFFFFFFFFFFFFFFFFFFFF6D
:1003A000FFFFFFFFFFFFFFFFFFFFFFFFFFFFFFFF5D
:1003B000FFFFFFFFFFFFFFFFFFFFFFFFFFFFFFFF4D
:1003C000FFFFFFFFFFFFFFFFFFFFFFFFFFFFFFFF3D
:1003D000FFFFFFFFFFFFFFFFFFFFFFFFFFFFFFFF2D
:1003E000FFFFFFFFFFFFFFFFFFFFFFFFFFFFFFFF1D
:1003F000FFFFFFFFFFFFFFFFFFFFFFFFFFFFFFFF0D
:10040000FFFFFFFFFFFFFFFFFFFFFFFFDEF9FFFF23
:1004100010B5054C237833B9044B13B10448AFF33E
:1004200000800123237010BD1C90FF1F00000000FE
:10043000A8430000084B10B51BB108490848AFF3AA
:1004400000800848036803B910BD074B002BFBD0A0
:10045000BDE81040184700BF000000002090FF1FBB
:10046000A84300001C90FF1F00000000704700BF61
:1004700070B53D4C82B004F5C87625460E2000F0DC
:10048000C9FA45F8040F0A2000F0C8FBAE42F5D1C6
:10049000002554F8040F03F039F80146284602F00D
:1004A00081FFB4420546F4D1304903F037F90146E3
:1004B0002F4803F033F94FF07E5102F071FF0146EF
:1004C0002C4803F02BF9162104462B4801F0D6FBEB
:1004D000204602F0EDFB022502460B460095274818
:1004E00000F0AEF8254800F059F82046244903F002
:1004F00015F902F0DDFB01F0FBFF02F0FDFE2149E2
:1005000003F00CF9204902F04DFF01464FF07E50F8
:1005100003F004F91D4902F043FF1D4902F040FFBA
:100520000021044603F002FA08B904F100440C214A
:10053000184801F0A3FB204602F0BAFB0224024651
:100540000B4600940D4800F07BF80321124801F09F
:1005500095FB0A4800F022F84FF47A7002B0BDE82B
:10056000704000F05BBB00BF3490FF1F0000C8422A
:1005700000C07F4400007A44A04200002887FF1F8B
:1005800000401C46004073450FCF5B3B33938843CC
:100590000000E040B8420000C842000000B5064A32
:1005A000036812885B6883B001A9ADF804200222B9
:1005B000984703B05DF804FBCC420000F0B5074655
:1005C0008BB0002A33D0012A08BF0A2251B321245C
:1005D00000E0F4B2B1FBF2F502FB1511C8B2092933
:1005E00000F1300198BFC8B20AA988BF3730214452
:1005F00088BFC0B201F8240C661E2946002DE8D140
:1006000033B1013CE4B20AAB23442D2203F8242C7D
:100610003B6801AA11195B683846C4F12202984769
:100620000BB0F0BD30228DF825202124E8E70368C7
:10063000C9B21B6898470BB0F0BD00BFFFFFFFFFBA
:100640002DE9F04385B080461946104616461F46F0
:100650009DF8305002F01AFE002840F0B18027F0DB
:100660000044304621464FF0FF32594B02F00EFE57
:1006700098B9304621464FF0FF32554B02F0E8FD65
:1006800058B9D8F8003053495B6840460322984770
:100690008146484605B0BDE8F083304639464FF004
:1006A00060424D4B02F0E8FD002870D130463946DB
:1006B0004FF06042494B02F0C1FD002867D130463F
:1006C00039460022002302F0B9FD002863D181469B
:1006D000002D65D0424B00240022104619463AA353
:1006E000D3E9002302F038FB01340B46E1B28D421E
:1006F0000246F2D83046394602F07CF90F460646EB
:1007000002F0DAFD044602F0B1FA02460B4630462A
:10071000394602F06DF94B4606460F460A2221463D
:100720004046FFF74BFF0F2D28BF0F2501352E2325
:100730008146EDB28DF8003001240022294B30466D
:10074000394602F009FB0F46064602F0B5FD04AB40
:100750002344C0B200F1300203F8102C02F096FAE4
:1007600002460B463046394602F042F90134E4B203
:10077000AC4206460F46E0D1D8F8003022465B680E
:10078000404669469847484605B0BDE8F083D8F82A
:100790000030154978E707F100474FF0010997E766
:1007A00000220F4B3046394602F024F902F084FD56
:1007B0004B4601460A224046FFF700FF814668E7A4
:1007C000D8F8003009495FE7000000A09999B93FC7
:1007D000FFFFEF7FD8420000FFFFEF41FFFFEFC1B7
:1007E0000000E03F00002440D4420000D04200005E
:1007F000374A384913681B06FCD40B6813F0800392
:10080000F8D172B634490A78002A5FD0334A3448A6
:10081000F0B4344C176806682568D4680C303E4440
:10082000143200681268304F35442C44204402448E
:10083000C2F34E022D4E2E482E4D2F4C42F4004254
:100840003A60376806682D682C4A24680C303E44AC
:10085000006812682A4F35442C4420440244C2F3F5
:100860004E02284E2848294D294C42F400423A6055
:10087000376806682D68274A24680C303E440068B3
:100880001268254F35442C4420440244C2F34E02E2
:10089000224E2348234D244C42F400423A603768EC
:1008A00006682D68214A24680C303E4400681268AE
:1008B00035442C4420440244C2F34E021C4842F406
:1008C000004202600B7062B6F0BC704762B67047BF
:1008D00024B0034024B00B40C991FF1F38B003403F
:1008E0003CB0034040B003402CB0034058B003403C
:1008F0005CB0034060B0034064B003406CB00340A0
:1009000030B0034038B00B403CB00B4040B00B401F
:1009100044B00B404CB00B402CB00B4058B00B40D7
:100920005CB00B4060B00B4064B00B406CB00B404F
:1009300030B00B4030B42948294A2A4B2A4D602454
:10094000E121047011701B78284C082B30D00A2B41
:100950002748284937D00C2B0CBF15223D221223E3
:100960002A60236002600B60234B24491B78244AD1
:10097000BBB101230B601360224B23491B78234A30
:10098000012B26D9042B0FD9082B1ED9102B94BF6D
:10099000862387230B6013601D4B01221A7030BC25
:1009A00070470B601360E7E784230B601360F3E785
:1009B00000F58E200F490830012213232A6023609E
:1009C00002600B60D0E71922F7E785230B60136004
:1009D000E2E780230B601360DEE700BF00400740C2
:1009E000014007402087FF1F08B003400CB00340C0
:1009F00008B00B400CB00B40CC91FF1F20B003405F
:100A000020B00B402187FF1F24B0034024B00B40CF
:100A1000C991FF1F28282FD8334B2DE9F0411E5CC8
:100A2000FF2E2BD0314B1B78002B2AD132062CD431
:100A300072B62F4D2F4C2F46012326602B7062B6C5
:100A400072B623681B060CD43B781BB9F4E72B78ED
:100A5000002BF1D062B601F015FA72B623681806C1
:100A6000F5D5254B1B6800222A7062B6234A107800
:100A700043FA00F0BDE8F081002070470020BDE897
:100A8000F081FFF7B5FE3206D2D572B61C4DDFF805
:100A90007C801C4C06F04007FFB206F03F06D8F8F9
:100AA0000030DFB123F01003C8F8003001232660C6
:100AB000134A2B7062B672B6236819060CD41378E9
:100AC0001BB9ECE72B78002BE9D062B601F0DAF91C
:100AD00072B623681B06F5D50B4BC3E743F0100332
:100AE000C8F80030E2E700BFDC420000C991FF1FF8
:100AF000CB91FF1F00B0034010B00340C891FF1F0F
:100B0000CA91FF1F00B00B4010B00B400CB00B405F
:100B100008B5FFF7ABFCFFF7ABFC01F0B3F9FAE760
:100B200008B5104C08E0236859050DD423681A0550
:100B30000FD42368DB0411D423685803F3D500F0E5
:100B400007FA23685905F1D501F0F8FA23681A0568
:100B5000EFD501F089FB2368DB04EDD501F01AFC29
:100B6000EAE700BF3480044008B5FFF7D9FF00BFB3
:100B7000014B10221A80704700200540704700BFCB
:100B8000094908B50B6830B16A461844A2F580528D
:100B9000904202D20860184608BD02F0D1FE0C2334
:100BA00003604FF0FF3008BD2487FF1FF0B44D1ED7
:100BB0002E46002400E00134B0FBF2F302FB1300E8
:100BC000092800F130078ABF3730F8B2C0B206F802
:100BD000010F1846002BEED10A1953704CB1107852
:100BE00015F8016F28700133E01A834202F8016999
:100BF000F5DB0846F0BC704730B4054B054D064C9C
:100C0000002210211A602A602060196030BC7047F1
:100C100014D0034004D0034000D003402DE9F84332
:100C2000054672B6214F224B224A1B683C68126867
:100C300062B6520102D5322B88BF0134A5B3C3F589
:100C40008C331D4EDFF86890DFF8688003F23F13A5
:100C50004FF47A72A6FB031302FB04F404EB1314A3
:100C600072B6D9F800103A68D8F800E062B6C1F55B
:100C70008C3303F23F13A6FB03031EF0806FC4EB1B
:100C800013134FF47A7002D0322988BF013200FB6F
:100C90000233B3F57A7F04D3013D05D004F57A74AD
:100CA000DEE701F0EFF8DBE7BDE8F883D091FF1F46
:100CB00018E000E004ED00E0398EE338F8B52D4B84
:100CC0002D49DFF8D0E0DFF8D0C02C4E2C4D2D4C54
:100CD0002D4A2E4F4FF4000018604FF080701860BE
:100CE0004FF0007018604FF0806018604FF00060A7
:100CF000186000200860282348F6FF71CCF8001027
:100D0000CEF80030336013602B6023603B60B36229
:100D10009362092245F8242CC4F8D80F05F57F65A5
:100D2000C7F8D41F07F5FF2707F5FA67C6F8F83F9D
:100D30002B6006F5FF26C4F8D42F05F5FD2504F534
:100D4000FF24386006F2F4761148316005F5FF653E
:100D500004F5FD642B6023600260FFF7EBFD1920B2
:100D6000FFF75CFF00F05CFE40F21310BDE8F840B6
:100D7000FFF754BF08E100E0048003401480034003
:100D8000248003402C8003401C80034034800340B7
:100D900000800B400C80034008800340431E032B5F
:100DA00014D872B60A4951F8230068B170B4094CDE
:100DB000058834F81320466841F82360521B24F854
:100DC000132062B670BC704762B67047002070474F
:100DD0002C92FF1FAC94FF1F013803280BD872B66A
:100DE000074B53F8203043B100205B680130002BE3
:100DF000FBD162B67047002070471846F9E700BF84
:100E00008092FF1F30B472B62B4A13781D0706D5A7
:100E10002A4B196A002936D0996A002941D05378A3
:100E20001C0706D5254B196C00293ED0996C00296A
:100E300039D09378190705D5204B196E002936D083
:100E4000996E89B1D3781B0707D51C4BD3F8802046
:100E50007AB3D3F8882011213AB162B6184B002238
:100E60001A7030BC00F07EBE0D21154C154D227855
:100E700043F8315003EBC1030830013A5860227047
:100E800062B630BC704704220D4C0F4D217843F8F8
:100E9000325003EBC20308304A1E5860227062B61B
:100EA000EFE70521E1E70921DFE70822ECE70C2263
:100EB000EAE71022E8E700BF304300000080FF1F90
:100EC000A992FF1FC800400088004000431E032B6A
:100ED0001DD81B4A400140F0100030B4104472B6D7
:100EE000184CE25C032A1BD8DFE802F00212151747
:100EF00003220D88E25410F0080F14BFC823882382
:100F000043EA054308310360416062B630BC704774
:100F100008300222EDE70522EBE708300422E8E77B
:100F2000094A52F8230038B1084A52F823004160B8
:100F300042F8231062B6E9E742F82310034AF7E7C4
:100F40000080FF1FB892FF1F8092FF1F9092FF1F2B
:100F50002DE9F04FDFF80CB3DFF80CA387B044E0C5
:100F6000AB4F4FEA930807EBC809013ED9F80420BC
:100F700003F00803F6B2A2F1080003F0FF04002B0F
:100F800040F0028157F838301B0C99B222F8081C47
:100F9000002B00F0F0809F4B22F8064C42F8044CE6
:100FA00053F82620002A00F0C5829B4D55F82630C4
:100FB00058609A4C45F8260034F81630194424F845
:100FC000161000F0AFFD002800F0AD82944A954B5A
:100FD00019F0080F00F1080018BF1346C9F8040003
:100FE00047F8383008238BF800309BF80040E4B213
:100FF00061071AD58C4B1B78A3B18C490A7802F093
:10100000FF0322B1013BDBB20B7003B900BE88497C
:101010000A7802F0FF032AB1013BDBB20B70002B10
:1010200000F0578204238BF8003004F0080303F02B
:10103000FF02002B00F0CC809AF80030DBB21E09D2
:101040008ED19C08DFF8C89159F8342009EBC4010F
:10105000C2F38302013A49680C2A00F28880DFE873
:1010600002F07C7C86868686868647868686070092
:101070000868704D4A68704F704E286081B240F227
:101080008160674B6A604FF0010E0022814249F88F
:1010900034303A60C9F81020C9F8182086F800E00A
:1010A0005B4C00F2E380B1F5D06F80F04683B1F580
:1010B000817F00F0FC8200F28D82802900F077832E
:1010C000822940F0FA82A98801F07F01042900F208
:1010D000F4825B485B4C890008442270627002789D
:1010E000930740F1588484F800E04FF0020E42E389
:1010F000514F3A6832B3544B504E544918883478A3
:101100000D784028864645F0020828BF4FF0400E73
:10111000002C84F001043470CEEB00000CBF882456
:10112000C82409EBC80680B285F0010544EA0E44E4
:101130007260188049F8384072440D70002800F041
:1011400045813A603B4B1A88B2F5A06F0FD1002160
:101150009A7859703E4B1A7009E0364A108842F26C
:101160002102904200F037812D4A49F83420394A53
:101170000123137036E72A4A2A4B19F0080F18BFCB
:10118000134647F838302DE700F0ECFC324A33497B
:1011900052F82630002B00F0D18158688C5D42F85F
:1011A000260003F10802C9F80420032C05D8DFE863
:1011B00004F02C02292602228A551A8819F0080FF9
:1011C0000CBF8823C82343EA024347F8383009E7B5
:1011D000E00700F18181210600F1F281A20706D526
:1011E0001F4A204913780220DBB213700870E3060F
:1011F00002D51C4B10221A7007B0BDE8F08F0422F4
:101200008A55DAE705228A55D7E703228A55D4E7BB
:101210000080FF1F2C92FF1FD891FF1FAC94FF1F6F
:10122000C800400088004000B492FF1F3D92FF1F9D
:10123000BC92FF1FA092FF1FD491FF1F3C92FF1F83
:10124000C0200740AC92FF1FE891FF1FA892FF1F2C
:1012500098200740942007408092FF1FB892FF1FFC
:1012600088200740802007409020074042F221005C
:10127000814200F02A8100F2D880B1F5086F00F0B9
:101280007682B1F5106F40F01882226AB349A878CF
:101290000870120600F13A83D9F82820B0491306E5
:1012A00000F10C83D9F83020AD49150600F1018317
:1012B000D9F83820AA49140600F1F682D9F840205E
:1012C000A749100600F14A83D9F84820A44912061C
:1012D00000F13F83D9F85020A149130600F134836F
:1012E000D9F858209E49150600F12983D9F86020C5
:1012F0009B49140600F11E83D9F86820984910060E
:1013000000F11383D9F870209549120600F1088383
:10131000D9F878209249130600F1FD82D9F880208F
:101320008F49150600F13183D9F888208C491406BD
:1013300000F12583D9F890208949100600F119831E
:10134000D9F898208649120600F10D838548864A0F
:10135000864901908648874D874C0497002305965F
:10136000029580460F4616461D460394306828B104
:10137000446800F0F7FB2046002CF9D100233360CD
:10138000029B38681A46002342F8253028B1446889
:1013900000F0E8FB2046002CF9D100223A60019AC7
:1013A00098F800301146002241F8042B039A01916D
:1013B000023B4FF0000122F81510032B00F22B81A5
:1013C000DFE813F07001250170012501BEF1400F27
:1013D00018BF0022B5E6694A0D784878157050703C
:1013E0008D78C8789570D07010680D791571862841
:1013F0004D7989795571917100F09B816049614EF9
:101400000A78307882F00105002842F002020D705F
:101410000CBF8821C82149F8321009EBC20280F0C4
:1014200001000021307051609EE642F2212081428D
:1014300040F0CB81544B554C5549A8781D68256028
:10144000CDF804E0087000200290804684460446EF
:101450004B490D7845F0020E09EBCE030393019B37
:10146000002B039B5C600CBF8824C82444EA08035B
:1014700085F0010449F83E3032700C70DFF8E0E08E
:10148000404BDFF8FC80002840F01E81BCF1400F8B
:101490001BD144F0020C09EBCC03029CDFF8C0E046
:1014A0005C60002A40F02681020442F088029DF828
:1014B00004304EF83C20044433700D70234640281D
:1014C00003D10020334A3B601080334A012313705C
:1014D0004DE600F0B3FCA5E5214B2F4828491A61E1
:1014E0004FF0020E80F800E02C4F0A702C49196072
:1014F00099602C4E2C4D2D4C9A610D213970FF2195
:101500003170DFF8B8E029702270294D294A8EF831
:1015100000109F27012406F8047C5D600470DA60E7
:1015200007B0BDE8F08F244A47F83800137801333C
:10153000137057E543F826000E4D3AE58B5D032BFB
:1015400000F2F08001A252F823F000BFE50F000086
:10155000E50F00000916000003160000B492FF1FFB
:101560000080FF1F9092FF1F2C92FF1F8092FF1F91
:10157000B892FF1FD891FF1FAC94FF1FB494FF1FB8
:10158000A892FF1F3C92FF1FD091FF1FBC94FF1F2A
:10159000CC92FF1FE891FF1F94200740C020074016
:1015A000880040008820074080200740982007409E
:1015B000EC91FF1F4092FF1FA992FF1F8C20074054
:1015C000C149C24B80220D2008701A70A2077FF516
:1015D0000EAE05E640F20232914240F0EE80A9885C
:1015E00001F07F01042968D86A88002A65D1B648CD
:1015F000CDF804E089000844017841F0020101704F
:1016000021E701238B55EDE400238B55EAE44FF0ED
:10161000010388F800300135042D06F1040607F1B6
:10162000040708F101087FF4A1AEA94CA94B227868
:10163000A94D049F059E002129701A70130700F11F
:1016400005816278A549DFF8A0820A7010074FF083
:101650000001C9F83010C9F8381000F1E080A04945
:10166000A2780A700021C9F85010C9F85810110763
:10167000DFF8748200F10181E2789A499A4C0A708D
:1016800000211207C9F87010C9F8781000F1B08075
:1016900033780193002183F00102C9F89010C9F852
:1016A0009810D0E64FF0000388F80030B3E7A9881F
:1016B00001F07F01042940F28D80834A0F231370CB
:1016C0008A4A0123137052E540287FF6E2AE44F0C7
:1016D00002040EEBC401029E4E60BAB19DF80410E4
:1016E000834A19703346403888F8005040334EF82A
:1016F0003420E7E69DF8043033700204029B0D703D
:1017000042F0C80203444EF83C20D8E69DF804108D
:101710001970029B774A88F80050403840334EF8E1
:101720003420CFE619F0080F0CBF022303238B559A
:1017300058E4714A0F21117060E6704A5468002C19
:10174000BBD06888B5F804E003E00C325468002C84
:10175000B3D013888342F8D153887345F5D1000A7A
:1017600003280CBF94F800E0B2F808E003E0644AF4
:10177000644C12782270E888704580F03F8162499D
:101780000D784028844645F0020E28BF4FF0400CEB
:1017900004EB0C0309EBCE02029301235460CCEB63
:1017A00000004FEA0C4800220193C8245EE6554C25
:1017B0004FF0020E22706270DDE7B1F5A06F7FF48A
:1017C0007CAF0123002201933DE642F22132914297
:1017D000F7D072E76A88002A7FF46FAF3A48CDF8F5
:1017E00004E089000844017821F0020101702AE632
:1017F00000F098F9002800F0EF8008303D4AC4F866
:101800008400C4F8802000F08DF9002800F0DE800C
:101810000830374AC9F88C00C9F8882038E700F04A
:1018200081F9002800F0C0800830324AC8F844002E
:10183000C8F8402000F076F9002800F0AF800830AA
:101840002B4AC9F84C00C9F8482008E700F06AF9AB
:10185000002800F0CD800830264AC9F82400C9F8D5
:10186000202000F05FF9002800F0BC800830204AFA
:10187000C9F82C00C9F82820E3E600F053F9002845
:1018800000F09E8008301B4AC8F86400C8F8602049
:1018900000F048F9002800F08D800830144AC9F89B
:1018A0006C00C9F86820E7E6C86B083800F05AF900
:1018B00004E5486B083800F055F9F9E4C86A0838BF
:1018C00000F050F9EEE400BFC02007408020074040
:1018D00030430000C4200740A992FF1FC8200740E2
:1018E000CC200740D02007400080FF1F94200740F5
:1018F000C8004000880040003D92FF1F34430000B4
:10190000B492FF1FAC92FF1FA892FF1F606A0838B5
:1019100000F028F9C0E4C86F083800F023F9FDE4AE
:10192000486F083800F01EF9F2E4C86E083800F07D
:1019300019F9E7E4486E083800F014F9DCE4C86DE2
:10194000083800F00FF9D1E4486D083800F00AF9C2
:10195000C6E4C86C083800F005F9BBE4486C0838E8
:1019600000F000F9B0E4D1F89C00083800F0FAF873
:10197000ECE4D1F89400083800F0F4F8E0E4D1F891
:101980008C00083800F0EEF8D4E4D1F88400083870
:1019900000F0E8F8C8E44FF0020EECE62A78C9F847
:1019A000480001322A705AE62A78C8F8400001320D
:1019B0002A703FE72A78C9F8680001322A705BE68E
:1019C0002A78C8F8600001322A7061E72A78C9F8DD
:1019D000880001322A705BE62A78C4F88000013260
:1019E0002A7010E72A78C9F8280001322A7028E600
:1019F0002A78C9F8200001322A7032E7BEF1400F80
:101A0000F44628BF4FF0400C04EB0C030293012373
:101A1000CCEB0E004FEA0C480022019318E500BF02
:101A2000F8B500F023FD294B29482A4C2A4F2B4DAD
:101A3000DFF8BCC0DFF8BCE0294E00221A605A6013
:101A40009A60DA601A615A619A61DA611A625A62BE
:101A50009A62DA621A635A639A63DA631A645A649E
:101A60009A64DA641A655A659A65DA651A665A667E
:101A70009A66DA661A675A679A67DA67C3F8802047
:101A80000168C3F8842041F480210160C3F3072179
:101A90002170C3F30740134938701B0E2B70FF23CE
:101AA0008CF80030104D8EF8003010480B70012378
:101AB000337084F8642070264FF40074102207F805
:101AC0002C3C2E70046081F8F820F8BD0080FF1FC8
:101AD000348004409C200740B0200740B4200740D9
:101AE000942007401020074049E400E008E100E0AE
:101AF000802007408820074000F0A4B800F07CB8A0
:101B000000F056B800F090B800F06CB900F046B99B
:101B10000846114600F0B2B8084600F033B900BFDD
:101B2000704700BF72B60D480268B2FA82F30B2B01
:101B300010DC4FF00041D94022EA0102026062B697
:101B4000074803EBC303DB00C2180021C150104655
:101B50005160704762B60020704700BF3887FF1F92
:101B6000BC83FF1F0D4B0E4AC31AA2FB03231B09A4
:101B70000B2B0CD80B4A127852B972B60A484FF0A8
:101B80000041026821FA03F31A43026062B670470B
:101B9000064A1278002AF0D0FFF734B9BC83FF1F41
:101BA000398EE338A992FF1F3887FF1FB492FF1FB9
:101BB00038B50F4D286878B143880288C1180133C1
:101BC00093420C7A02D24380204638BDFFF7CAFF09
:101BD000002320462B6038BD064B1B782BB1032019
:101BE000FFF7DCF828600028E6D14FF0FF3038BD61
:101BF000C892FF1FB492FF1F10B5094C206818B19E
:101C000043881844007A10BD064B1B782BB1032083
:101C1000FFF7C4F820600028F2D14FF0FF3010BD6C
:101C2000C892FF1FB492FF1F044B054A1B6890889F
:101C30001BB11A885B88D31A18447047C892FF1FDB
:101C4000AC94FF1F0B4B1B789BB110B50A4C20685E
:101C500048B1FFF787FF002303202360FFF79EF8BA
:101C600030B1FFF77FFF0320FFF798F80028F8D185
:101C700010BD7047B492FF1FC892FF1F2DE9F04FAF
:101C8000DFF8F89083B0012289F80020019169B350
:101C9000DFF8EC80364F019E8346D8F80000B0B3E1
:101CA000344D4488C4F14001B14228BF314604EBB1
:101CB000010E00221FFA8EFE2A70761AA0F802E0AA
:101CC00000F1080251B1013C224459441BF8014B78
:101CD00002F8014F8B45F9D1B0F802E0BEF13F0F99
:101CE0000BD8254A05211170002ED6D1019800236A
:101CF00089F8003003B0BDE8F08F40220280014631
:101D00000420FFF7E3F80022C8F80020E9E73A785A
:101D10002AB3184D48F601444FF0010A07E0013C90
:101D200016D02A78A2B900F0ADF83A78BAB10420FA
:101D3000FFF752F80728F2D889F800A0FFF7F2FE63
:101D4000C8F800000028ACD10C4B013C1870E8D159
:101D500001234FF0FF302B7003B0BDE8F08F00235C
:101D60004FF0FF3089F8003003B0BDE8F08F00BFBE
:101D7000B492FF1FC492FF1FBC92FF1FBD92FF1FB2
:101D8000C092FF1F00B583B002AB012103F8010D23
:101D90001846FFF773FF03B05DF804FB38B50E4D2E
:101DA0000E4C28680123237028B14088002323703B
:101DB000C0F1400038BD0A4B1B7813B900202070D9
:101DC00038BD0420FFF708F80728F7D8FFF7AAFE68
:101DD00028600028E9D1F1E7C092FF1FBD92FF1FE4
:101DE000B492FF1FF8B5114B1B788BB1104E114DFB
:101DF000346801272F7064B10F4A63880027177079
:101E0000214623800420FFF761F8376000232B7000
:101E1000F8BDFFF787FE084B28B1014604201C706F
:101E2000FFF754F8F2E71F70F0E700BFB492FF1F0E
:101E3000C092FF1FBD92FF1FBC92FF1F38B50E4B13
:101E40001B7873B90D4C216861B103F0FF054B8815
:101E50000B800420FFF73AF8256038BD084B0122BB
:101E60001A7038BDFFF75EFE0028F7D00146BDE8C6
:101E700038400420FFF72AB8BD92FF1FC092FF1F11
:101E8000BC92FF1F38B5224C237803B138BD012323
:101E90002370FFF7C9FE70BB00F040F940BB00F0B3
:101EA000D3F910BB00F066FAE0B900232370EFF31A
:101EB0000583002BEAD1EFF3108172B6154B186839
:101EC000E0B1154C2278CAB945691D600123237021
:101ED000C5B1AA6101B962B6002545778368984704
:101EE0002570D3E700F018F9DFE700F013F9D9E720
:101EF00000F00EF9D3E7FFF713FECDE70029C5D1B7
:101F000062B638BD054B1D600029E5D1E3E700BF8F
:101F1000CD92FF1FE092FF1FE492FF1FDC92FF1F94
:101F200010B4EFF3108272B6437F33B9017F0129F9
:101F300007D003290FD00123437702B962B610BC42
:101F40007047124C2168A1B1114943610B6883614C
:101F500008605861EFE70F4C216881B10E49436179
:101F60000B688361086058610C4B4FF08051196019
:101F7000E1E7074B4161816120601860DBE7064BB8
:101F80004161816120601860EEE700BFE092FF1FB1
:101F9000DC92FF1FD092FF1FD492FF1F04ED00E0E0
:101FA00010B4047F4160022CC26002D010BCFFF765
:101FB000B7BF836810BC184770B5EFF3108272B6D4
:101FC0000C4C206880B10C4E00254369236073B12E
:101FD0009D6102B962B6457783689847EFF3108236
:101FE00072B620680028F0D102B962B670BD3360C5
:101FF000EFE700BFD092FF1FD492FF1FFFF7DCBFB7
:10200000184A30B41468002C27D0036821688B422A
:102010000ED2CB1A00218460C1602360E0601060A2
:102020000223037530BC704711688B42144608D3F5
:10203000A2685B1A0360002AF6D18260C460A060C7
:10204000EEE7D268C2608460E060C568CB1A022205
:10205000A8602360027530BC70478460C460106063
:10206000DEE700BFD892FF1FF8B5224E34682CB3CC
:102070002368002B3AD1204F1D4604E03468ECB1B0
:102080002368002B32D1A36803B1DD60206933607F
:10209000036825751B68BB4221D1037F4560022B75
:1020A000C46020D0FFF73CFF6368002BE6D02360BC
:1020B0002046FFF7A5FF3468002CE1D1EFF3108331
:1020C00072B60E4A00211068116003B962B628B1D9
:1020D0008468FFF795FF20460028F9D1F8BD224615
:1020E00000219847E0E783689847DDE7013B2360DC
:1020F000E4E700BFD892FF1FA11F0000E892FF1F76
:10210000024A136801331360FFF7AEBFD091FF1F7F
:10211000704700BF704700BF704700BF054A064BBD
:1021200010781B78C0B2DBB2984238BF4030C01A7A
:10213000704700BFF092FF1FF192FF1FF0B4384BC1
:102140001A7912F0300F2CD072B6997D01F0FF028F
:1021500000293DD062B6334F334938780D78334E7D
:102160001C46C0B2EDB2431C402BE17928BF0023CE
:10217000AB4202F1FF32C9B21CBFF154184612F053
:10218000FF02F0D12A4B1B68C2B23A704BB1A84291
:1021900036BFC5F14005401B40192728C4BF0122A6
:1021A0001A701F49CA78D2B2150616D452060DD538
:1021B0001B4B1B795B0609D51E4B1F491B68002270
:1021C0000A7003B11A70164B3C22DA70F0BC7047EB
:1021D0004022D9795A7462B6E3E70B791C06E5D53B
:1021E000164B174E1C783378E4B2DBB29C420ED00B
:1021F000144D01E0A3420AD00133402B28BF002335
:102200000879E85CC0B2C871087D0728F2D9DBB252
:10221000034933700B79180644BF7C23CB70C5E7A4
:1022200000A00640F092FF1FF192FF1F3493FF1FA2
:10223000EC92FF1F7893FF1F7493FF1F7C93FF1F87
:102240007593FF1FF492FF1F054A064B10781B7809
:10225000C0B2DBB2984238BF4030C01A704700BFEE
:10226000F093FF1F8593FF1FF0B4384B1A7912F0DB
:10227000300F2CD072B6997D01F0FF0200293DD0BD
:1022800062B6334F334938780D78334E1C46C0B2AE
:10229000EDB2431C402BE17928BF0023AB4202F191
:1022A000FF32C9B21CBFF154184612F0FF02F0D140
:1022B0002A4B1B68C2B23A704BB1A84236BFC5F177
:1022C0004005401B40192728C4BF01221A701F492E
:1022D000CA78D2B2150616D452060DD51B4B1B79FF
:1022E0005B0609D51E4B1F491B6800220A7003B10B
:1022F0001A70164B3C22DA70F0BC70474022D97934
:102300005A7462B6E3E70B791C06E5D5164B174EF7
:102310001C783378E4B2DBB29C420ED0144D01E05D
:10232000A3420AD00133282B28BF00230879E85C98
:10233000C0B2C871087D0728F2D9DBB203493370F7
:102340000B79180644BF7C23CB70C5E700B006406C
:10235000F093FF1F8593FF1FB093FF1F8093FF1F14
:10236000F493FF1F8493FF1FF893FF1FF193FF1F48
:102370008893FF1F054A064B10781B78C0B2DBB26A
:10238000984238BF4030C01A704700BF0094FF1F0A
:102390000194FF1F30B42B4B1A7994061FD52A489D
:1023A000DA790378294901333F2B0978C8BF002324
:1023B0008B42D2B203D0264CD9B2E2540170254AE6
:1023C000116861B1244A1278D2B2934236BFC2F189
:1023D00040029B1A9B18272BC4BF01230B70194A7C
:1023E000D378DBB2180611D45A060DD5154B1B79DC
:1023F0005B0609D5194B1A491B6800220A7003B104
:102400001A70104B2C22DA7030BC70471179090613
:10241000EAD5144910480C780178C9B28C420DD025
:102420004A1C272A84BF00210A460F4D054C98BF3D
:10243000D1B2AA5CD2B2E2710170D5E76C21D17041
:10244000D2E700BF00C006400094FF1F0194FF1FA9
:102450002C94FF1FFC93FF1F6D94FF1F7094FF1FB0
:102460006C94FF1F7494FF1F0494FF1F70B584B019
:1024700072B6194B194D1A48702241260F2480213B
:102480001A702E701A460470197013781B06FCD54A
:10249000144B186862B6144B144C984298BF00EB6A
:1024A000800001A998BF40000A22FEF77FFB01A926
:1024B0002046002311F8012B01333AB10A2B20F8F2
:1024C000022FF7D11623237004B070BD5B00DBB27E
:1024D000237004B070BD00BF00000240070002403E
:1024E00006000240080002407F969800C887FF1F40
:1024F0002DE9F0418AB004460D4600F079F8364BDC
:1025000093F90080B8F1FF3F06460F460DD02246F2
:102510002B462046294600F0B9FE30B900220023A0
:102520002046294600F0A8FE20B1304639460AB0C0
:10253000BDE8F081294B0890CDE90245CDE904457D
:10254000019320462946B8F1000F17D1244D4FF0D2
:10255000604400220023CDE9064500F065FE002816
:1025600032D002230093684600F036FA98B1089BF7
:10257000B3B9DDE906010AB0BDE8F081194D0024C8
:1025800000220023CDE9064500F04EFE68B102238B
:1025900098450093E7D101F0D3F922230360E6E7E1
:1025A00001F0CEF9089B0360E3E70123B8F1020FC5
:1025B00000930BD101F0C4F9212303600A4800F015
:1025C0000DFACDE90601D2E701230093684600F039
:1025D00003FA0028F2D1EDE7DE87FF1F88430000F1
:1025E000FFFFEFC70000F0FFC4420000FFFFFFFF46
:1025F0002DE9F04FB1F5801F85B006460F460B461A
:102600005ADA024621F00044224300F0F880002903
:10261000C0F27A810022D64B00F09EFB0B460F469B
:10262000D4498B4206466FF035024ADCC3F31305EA
:1026300005F5152404F6647404F4801E8EF07F51B1
:1026400081F440111B15A3F2FF3341EA05079C18E2
:1026500030460022C84B394604EB1E5400F0C8F93E
:10266000AB1CC3F31303022B82468B464FF00002D0
:1026700030DC002300F0D8FD002800F0C980002CD9
:1026800000F04B81204600F001FBA5A3D3E9002315
:1026900006460F4600F060FBA3A3D3E900230446DF
:1026A0000D463046394600F057FB02460B462046A1
:1026B000294600F09FF90AE0AE498B424FF0000234
:1026C000B4DD32463B463046394600F093F905B05A
:1026D000BDE8F08F4FF0804300F08CF902460B46C6
:1026E0005046594600F062FC064620460F4600F070
:1026F000CDFA3246CDE900013B4630463946CDE9B8
:10270000026700F029FB02460B468046894600F02E
:1027100023FB87A3D3E9002306460F4600F01CFBEA
:1027200085A3D3E9002300F065F932463B4600F06B
:1027300013FB83A3D3E9002300F05CF932463B4648
:1027400000F00AFB80A3D3E9002300F053F94246CE
:102750004B4600F001FB7EA3D3E900238046894667
:102760003046394600F0F8FA7BA3D3E9002300F0A5
:1027700041F932463B4600F0EFFA79A3D3E9002352
:1027800000F038F932463B4600F0E6FA0B460246C6
:102790004946404600F02EF9A5F5C223C5F5D725D8
:1027A000A3F27A4351351D43002D8046894656DDFC
:1027B0000022724B5046594600F0CEFA52465B4614
:1027C00000F0CAFA06460F46002C68D132463B4656
:1027D0004046494600F00EF9DDE9022300F0BCFA5C
:1027E00002460B463046394600F002F902460B46D7
:1027F0005046594600F0FCF805B0BDE8F08F0022C5
:10280000002300205E4900F0D1FB05B0BDE8F08F49
:1028100055A3D3E900235046594600F09DFA0246DD
:102820000B460020554900F0E3F8524606460F4695
:102830005B465046594600F08FFA02460B4630463A
:10284000394600F089FA06460F46002C40F09A807F
:1028500002460B465046594600F0CAF837E7002CAE
:1028600000F0A4802EA3D3E90023DDE9000100F0ED
:1028700073FA42464B4604460D465046594600F010
:10288000B7F8DDE9022300F067FA27A3D3E90023B4
:1028900006460F46DDE9000100F05EFA21E020A3C4
:1028A000D3E90023DDE9000100F056FA32463B4649
:1028B00004460D464046494600F09CF8DDE90223F7
:1028C00000F04AFA18A3D3E9002380468946DDE9DF
:1028D000000100F041FA02460B464046494600F02E
:1028E00089F802460B463046394600F081F85246D8
:1028F0005B4600F07DF802460B462046294600F074
:1029000077F805B0BDE8F08F02460B4600F070F88E
:102910000022002300F04AFBD9E600200021D6E681
:102920000000E0FE422EE63F763C7935EF39EA3D85
:1029300044523EDF12F1C23FDE03CB966446C73FEE
:10294000599322942449D23F935555555555E53F07
:102950009FC678D0099AC33FAF788E1DC571CC3F12
:1029600004FA97999999D93F555555555555D53FDD
:1029700000005043FFFFEF7F0000F03F0000E03F0A
:10298000000050C3204600F081F90FA3D3E90023D3
:102990008046894600F0E0F90DA3D3E90023044600
:1029A0000D464046494600F0D7F99AE702460B46E5
:1029B0005046594600F01CF8DDE9022300F0CCF93E
:1029C00014E700BFAFF300800000E0FE422EE63FB8
:1029D000763C7935EF39EA3D002070470020014907
:1029E000704700BF0000F87F81F0004102E000BFA7
:1029F00083F0004330B54FEA41044FEA430594EABF
:102A0000050F08BF90EA020F1FBF54EA000C55EAF9
:102A1000020C7FEA645C7FEA655C00F0E2804FEACA
:102A20005454D4EB5555B8BF6D420CDD2C4480EAAC
:102A3000020281EA030382EA000083EA010180EADC
:102A4000020281EA0303362D88BF30BD11F0004F2A
:102A50004FEA01314FF4801C4CEA113102D0404260
:102A600061EB410113F0004F4FEA03334CEA13339B
:102A700002D0524263EB430394EA050F00F0A780B3
:102A8000A4F10104D5F1200E0DDB02FA0EFC22FAAE
:102A900005F2801841F1000103FA0EF2801843FAA2
:102AA00005F359410EE0A5F120050EF1200E012A93
:102AB00003FA0EFC28BF4CF0020C43FA05F3C018D1
:102AC00051EBE37101F0004507D54FF0000EDCF14A
:102AD000000C7EEB00006EEB0101B1F5801F1BD3F3
:102AE000B1F5001F0CD349085FEA30004FEA3C0CF7
:102AF00004F101044FEA445212F5800F80F09A80ED
:102B0000BCF1004F08BF5FEA500C50F1000041EBF0
:102B1000045141EA050130BD5FEA4C0C404141EBF4
:102B2000010111F4801FA4F10104E9D191F0000F1B
:102B300004BF01460020B1FA81F308BF2033A3F19E
:102B40000B03B3F120020CDA0C3208DD02F1140C95
:102B5000C2F10C0201FA0CF021FA02F10CE002F1D0
:102B60001402D8BFC2F1200C01FA02F120FA0CFCC9
:102B7000DCBF41EA0C019040E41AA2BF01EB045112
:102B8000294330BD6FEA04041F3C1CDA0C340EDC10
:102B900004F11404C4F1200220FA04F001FA02F353
:102BA00040EA030021FA04F345EA030130BDC4F111
:102BB0000C04C4F1200220FA02F001FA04F340EA06
:102BC0000300294630BD21FA04F0294630BD94F0B7
:102BD000000F83F4801306BF81F480110134013D9E
:102BE0004EE77FEA645C18BF7FEA655C29D094EA0F
:102BF000050F08BF90EA020F05D054EA000C04BF8D
:102C00001946104630BD91EA030F1EBF0021002077
:102C100030BD5FEA545C05D14000494128BF41F016
:102C2000004130BD14F580043CBF01F5801130BD7A
:102C300001F0004545F0FE4141F470014FF0000005
:102C400030BD7FEA645C1ABF194610467FEA655CB6
:102C50001CBF0B46024650EA013406BF52EA033558
:102C600091EA030F41F4002130BD00BF90F0000F46
:102C700004BF0021704730B54FF4806404F1320482
:102C80004FF000054FF0000150E700BF90F0000F3B
:102C900004BF0021704730B54FF4806404F1320462
:102CA00010F0004548BF40424FF000013EE700BF32
:102CB00042004FEAE2014FEA31014FEA02701FBFC2
:102CC00012F07F4393F07F4F81F06051704792F094
:102CD000000F14BF93F07F4F704730B54FF460740E
:102CE00001F0004521F0004120E700BF50EA010259
:102CF00008BF704730B54FF000050AE050EA010206
:102D000008BF704730B511F0004502D5404261EB75
:102D100041014FF4806404F132045FEA915C3FF4B6
:102D2000DCAE4FF003025FEADC0C18BF03325FEA4F
:102D3000DC0C18BF033202EBDC02C2F1200300FA04
:102D400003FC20FA02F001FA03FE40EA0E0021FA29
:102D500002F11444C1E600BF70B54FF0FF0C4CF413
:102D6000E06C1CEA11541DBF1CEA135594EA0C0FC9
:102D700095EA0C0F00F0DEF82C4481EA030621EA04
:102D80004C5123EA4C5350EA013518BF52EA03353F
:102D900041F4801143F4801338D0A0FB02CE4FF0F1
:102DA0000005E1FB02E506F00042E0FB03E54FF021
:102DB0000006E1FB03569CF0000F18BF4EF0010E19
:102DC000A4F1FF04B6F5007F64F5407404D25FEA15
:102DD0004E0E6D4146EB060642EAC62141EA5551C8
:102DE0004FEAC52040EA5E504FEACE2EB4F1FD0C0A
:102DF00088BFBCF5E06F1ED8BEF1004F08BF5FEA88
:102E0000500E50F1000041EB045170BD06F0004639
:102E100046EA010140EA020081EA0301B4EB5C04E6
:102E2000C2BFD4EB0C0541EA045170BD41F48011DE
:102E30004FF0000E013C00F3AB8014F1360FDEBF03
:102E4000002001F0004170BDC4F10004203C35DADF
:102E50000C341BDC04F11404C4F1200500FA05F362
:102E600020FA04F001FA05F240EA020001F0004203
:102E700021F0004110EBD37021FA04F642EB060179
:102E80005EEA430E08BF20EAD37070BDC4F10C04A3
:102E9000C4F1200500FA04F320FA05F001FA04F267
:102EA00040EA020001F0004110EBD37041F1000153
:102EB0005EEA430E08BF20EAD37070BDC4F120055E
:102EC00000FA05F24EEA020E20FA04F301FA05F2C6
:102ED00043EA020321FA04F001F0004121FA04F26E
:102EE00020EA020000EBD3705EEA430E08BF20EA3E
:102EF000D37070BD94F0000F0FD101F00046400078
:102F000041EB010111F4801F08BF013CF7D041EAF9
:102F1000060195F0000F18BF704703F000465200FD
:102F200043EB030313F4801F08BF013DF7D043EACE
:102F30000603704794EA0C0F0CEA135518BF95EA84
:102F40000C0F0CD050EA410618BF52EA4306D1D10B
:102F500081EA030101F000414FF0000070BD50EA2A
:102F6000410606BF1046194652EA430619D094EAB4
:102F70000C0F02D150EA013613D195EA0C0F05D19E
:102F800052EA03361CBF104619460AD181EA0301F2
:102F900001F0004141F0FE4141F470014FF00000AA
:102FA00070BD41F0FE4141F4780170BD70B54FF045
:102FB000FF0C4CF4E06C1CEA11541DBF1CEA1355C5
:102FC00094EA0C0F95EA0C0F00F0A7F8A4EB0504A7
:102FD00081EA030E52EA03354FEA013100F088809E
:102FE0004FEA03334FF0805545EA131343EA126367
:102FF0004FEA022245EA111545EA10654FEA00261C
:103000000EF000419D4208BF964244F1FD0404F5D4
:10301000407402D25B084FEA3202B61A65EB030530
:103020005B084FEA32024FF480104FF4002CB6EBED
:10303000020E75EB030E22BFB61A754640EA0C006D
:103040005B084FEA3202B6EB020E75EB030E22BFAD
:10305000B61A754640EA5C005B084FEA3202B6EBEE
:10306000020E75EB030E22BFB61A754640EA9C00AD
:103070005B084FEA3202B6EB020E75EB030E22BF7D
:10308000B61A754640EADC0055EA060E18D04FEA3B
:10309000051545EA16754FEA06164FEAC30343EADB
:1030A00052734FEAC2025FEA1C1CC0D111F4801FA8
:1030B0000BD141EA00014FF000004FF0004CB6E7A1
:1030C00011F4801F04BF01430020B4F1FD0C88BF40
:1030D000BCF5E06F3FF6AFAEB5EB030C04BFB6EB4B
:1030E000020C5FEA500C50F1000041EB045170BD3E
:1030F0000EF0004E4EEA113114EB5C04C2BFD4EB6B
:103100000C0541EA045170BD41F480114FF0000EEE
:10311000013C90E645EA060E8DE60CEA135594EA6A
:103120000C0F08BF95EA0C0F3FF43BAF94EA0C0F6D
:103130000AD150EA01347FF434AF95EA0C0F7FF4E2
:1031400025AF104619462CE795EA0C0F06D152EA36
:1031500003353FF4FDAE1046194622E750EA41061A
:1031600018BF52EA43067FF4C5AE50EA41047FF42B
:103170000DAF52EA43057FF4EBAE12E74FF0FF3C90
:1031800006E000BF4FF0010C02E000BF4FF0010C61
:103190004DF804CD4FEA410C7FEA6C5C4FEA430CDA
:1031A00018BF7FEA6C5C1BD001B050EA410C0CBF29
:1031B00052EA430C91EA030F02BF90EA020F00208B
:1031C000704710F1000F91EA030F58BF994208BFF2
:1031D00090422CBFD8176FEAE37040F001007047AF
:1031E0004FEA410C7FEA6C5C02D150EA013C07D106
:1031F0004FEA430C7FEA6C5CD6D152EA033CD3D051
:103200005DF8040B704700BF8446104662468C464A
:103210001946634600E000BF01B5FFF7B7FF00287D
:1032200048BF10F1000F01BD4DF808EDFFF7F4FFA6
:103230000CBF012000205DF808FB00BF4DF808ED31
:10324000FFF7EAFF34BF012000205DF808FB00BF54
:103250004DF808EDFFF7E0FF94BF012000205DF876
:1032600008FB00BF4DF808EDFFF7CEFF94BF01202B
:1032700000205DF808FB00BF4DF808EDFFF7C4FF24
:1032800034BF012000205DF808FB00BF4FEA410C6D
:103290007FEA6C5C02D150EA013C0AD14FEA430C50
:1032A0007FEA6C5C02D152EA033C02D14FF000008D
:1032B00070474FF0010070474A0011D212F500121A
:1032C00011D20DD56FF47873B3EB62520ED44FEA7E
:1032D000C12343F0004343EA505323FA02F07047FE
:1032E0004FF00000704750EA013002D14FF0FF303C
:1032F00070474FF0000070474FEA4102B2F1E043DF
:1033000024BFB3F5001CDCF1FE5C0DD901F0004CCC
:103310004FEAC0024CEA5070B2F1004F40EB83001C
:1033200008BF20F00100704711F0804F21D113F148
:103330003872BCBF01F00040704741F480114FEA81
:103340005252C2F11802C2F1200C10FA0CF320FA0A
:1033500002F018BF40F001004FEAC1234FEAD32327
:1033600003FA0CFC40EA0C0023FA02F34FEA430391
:10337000CCE77FEA625307D150EA01331EBF4FF01A
:10338000FE4040F44000704701F0004040F0FE4035
:1033900040F40000704700BF80F0004002E000BF32
:1033A00081F0004142001FBF5FEA410392EA030F30
:1033B0007FEA226C7FEA236C6AD04FEA1262D2EB7A
:1033C0001363C1BFD218414048404140B8BF5B427F
:1033D000192B88BF704710F0004F40F4000020F018
:1033E0007F4018BF404211F0004F41F4000121F02E
:1033F0007F4118BF494292EA030F3FD0A2F1010278
:1034000041FA03FC10EB0C00C3F1200301FA03F1B5
:1034100000F0004302D5494260EB4000B0F5000FD8
:1034200013D3B0F1807F06D340084FEA310102F197
:103430000102FE2A51D2B1F1004F40EBC25008BF49
:1034400020F0010040EA03007047490040EB000013
:1034500010F4000FA2F10102EDD1B0FA80FCACF142
:10346000080CB2EB0C0200FA0CF0AABF00EBC25041
:1034700052421843BCBFD0401843704792F0000F2F
:1034800081F4000106BF80F400000132013BB5E782
:103490004FEA41037FEA226C18BF7FEA236C21D0F8
:1034A00092EA030F04D092F0000F08BF084670475D
:1034B00090EA010F1CBF0020704712F07F4F04D12B
:1034C000400028BF40F00040704712F100723CBF3E
:1034D00000F50000704700F0004343F0FE4040F468
:1034E000000070477FEA226216BF08467FEA236326
:1034F0000146420206BF5FEA412390EA010F40F411
:10350000800070474FF0000304E000BF10F000435C
:1035100048BF40425FEA000C08BF704743F0964343
:1035200001464FF000001CE050EA010208BF70475E
:103530004FF000030AE000BF50EA010208BF7047E5
:1035400011F0004302D5404261EB41015FEA010CFA
:1035500002BF84460146002043F0B64308BFA3F1F2
:103560008053A3F50003BCFA8CF2083AA3EBC253D4
:1035700010DB01FA02FC634400FA02FCC2F12002F3
:10358000BCF1004F20FA02F243EB020008BF20F02A
:103590000100704702F1200201FA02FCC2F1200290
:1035A00050EA4C0021FA02F243EB020008BF20EA85
:1035B000DC7070474FF0FF0C1CEAD0521EBF1CEAB3
:1035C000D15392EA0C0F93EA0C0F6FD01A4480EAA1
:1035D000010C400218BF5FEA41211ED04FF000638A
:1035E00043EA501043EA5111A0FB01310CF00040B6
:1035F000B1F5000F3EBF490041EAD3715B0040EADC
:10360000010062F17F02FD2A1DD8B3F1004F40EBAB
:10361000C25008BF20F00100704790F0000F0CF07E
:10362000004C08BF49024CEA502040EA51207F3A42
:10363000C2BFD2F1FF0340EAC250704740F400001D
:103640004FF00003013A5DDC12F1190FDCBF00F00E
:1036500000407047C2F10002410021FA02F1C2F1BC
:10366000200200FA02FC5FEA310040F1000053EA58
:103670004C0308BF20EADC70704792F0000F00F0A6
:10368000004C02BF400010F4000F013AF9D040EAAC
:103690000C0093F0000F01F0004C02BF490011F440
:1036A000000F013BF9D041EA0C018FE70CEAD1533E
:1036B00092EA0C0F18BF93EA0C0F0AD030F0004CBE
:1036C00018BF31F0004CD8D180EA010000F0004072
:1036D000704790F0000F17BF90F0004F084691F030
:1036E000000F91F0004F14D092EA0C0F01D142026A
:1036F0000FD193EA0C0F03D14B0218BF084608D133
:1037000080EA010000F0004040F0FE4040F400007C
:10371000704740F0FE4040F4400070474FF0FF0C0F
:103720001CEAD0521EBF1CEAD15392EA0C0F93EA56
:103730000C0F69D0A2EB030280EA010C49024FEAA8
:10374000402037D04FF0805343EA111143EA101361
:103750000CF000408B4238BF5B0042F17D024FF419
:10376000000C8B4224BF5B1A40EA0C00B3EB510FF4
:1037700024BFA3EB510340EA5C00B3EB910F24BFDD
:10378000A3EB910340EA9C00B3EBD10F24BFA3EB62
:10379000D10340EADC001B0118BF5FEA1C1CE0D12A
:1037A000FD2A3FF650AF8B4240EBC25008BF20F0DD
:1037B000010070470CF0004C4CEA50207F32C2BF31
:1037C000D2F1FF0340EAC250704740F400004FF0CE
:1037D0000003013A37E792F0000F00F0004C02BFFF
:1037E000400010F4000F013AF9D040EA0C0093F0C9
:1037F000000F01F0004C02BF490011F4000F013B23
:10380000F9D041EA0C0195E70CEAD15392EA0C0F8A
:1038100008D142027FF47DAF93EA0C0F7FF470AFC2
:10382000084676E793EA0C0F04D14B023FF44CAF05
:1038300008466EE730F0004C18BF31F0004CCAD19A
:1038400030F000427FF45CAF31F000437FF43CAFD6
:103850005FE700BF4FF0FF3C06E000BF4FF0010CF8
:1038600002E000BF4FF0010C4DF804CD4FEA4002DA
:103870004FEA41037FEA226C18BF7FEA236C11D024
:1038800001B052EA530C18BF90EA010F58BFB2EBD7
:10389000030088BFC81738BF6FEAE17018BF40F057
:1038A000010070477FEA226C02D15FEA402C05D10B
:1038B0007FEA236CE4D15FEA412CE1D05DF8040B90
:1038C000704700BF844608466146FFE70FB5FFF723
:1038D000C9FF002848BF10F1000F0FBD4DF808EDDB
:1038E000FFF7F4FF0CBF012000205DF808FB00BFCC
:1038F0004DF808EDFFF7EAFF34BF012000205DF826
:1039000008FB00BF4DF808EDFFF7E0FF94BF012072
:1039100000205DF808FB00BF4DF808EDFFF7D2FF6F
:1039200094BF012000205DF808FB00BF4DF808EDB2
:10393000FFF7C8FF34BF012000205DF808FB00BF7F
:10394000014B1868704700BF088CFF1F70B50F4E01
:103950000F4D761BB61018BF002405D0013455F862
:10396000043B9847A642F9D10A4E0B4D761B00F056
:103970000FFDB61018BF002406D0013455F8043BE3
:103980009847A642F9D170BD70BD00BF9C430000AE
:103990009C430000A44300009C430000024B0146EE
:1039A000186800F003B800BF088CFF1F2DE9F04F26
:1039B00001F10B05162D83B0064640F29F8035F0CD
:1039C000070500F1BF80A94200F2BC8000F0A6FA12
:1039D000B5F5FC7FC0F09C826B0A00F0BA80042B26
:1039E00000F28381A80900F1390E4FEA4E03383006
:1039F000C44F07EB8303A3F108015C68A14207D120
:103A0000ACE0002A80F2AC80E468A14200F0A6801D
:103A1000636823F003035A1B0F2AF2DDB9493C699E
:103A200001F1080E744500F0B381636823F00303CD
:103A30005A1B0F2A00F39981002AC1F814E0C1F83B
:103A400010E080F29E80B3F5007F80F06781DB0894
:103A500003F1010C01229B1002FA03F34A6851F8AA
:103A60003C80C4F8088001EBCC091A43A9F1080393
:103A7000E3604A6041F83C40C8F80C4083100124E0
:103A80009C40944200F28A80144206D120F0030048
:103A90006400144200F10400FAD007EBC009CC46E0
:103AA0008046DCF80C108C4507D173E1002A80F2C7
:103AB0008181C9688C4500F06D814B6823F0030358
:103AC0005A1B0F2AF2DD0C46D1F80CC054F8088FAF
:103AD0004B1945F001054D6042F00101C8F80CC0DA
:103AE0003046CCF808807B613B61C3F80CE0C3F83A
:103AF00008E059609A5000F013FA1FE0102921D80D
:103B000000F00CFA1025062302207E4F07EB8303FA
:103B1000A3F108025C68944200F045816368E168A3
:103B2000A56823F00303234430465A68E96042F055
:103B300001028D605A6000F0F3F90834204603B0AA
:103B4000BDE8F08F00240C232046336003B0BDE8AD
:103B5000F08F80234FF0400E3F2049E770465DE72D
:103B60002344E1685A68A56842F00102E9603046E2
:103B70008D605A6000F0D4F90834204603B0BDE8E7
:103B8000F08F234430465A6842F001025A6000F038
:103B9000C7F90834204603B0BDE8F08FBC686368FD
:103BA00023F00308A84504D3C5EB08030F2B00F34B
:103BB0008C80554BDFF860911A68D9F800300133DA
:103BC0002A4404EB080A00F0608102F580520F32AB
:103BD00022F47F6222F00F0211463046019200F07B
:103BE000A1F9B0F1FF3F8346019A00F05881824568
:103BF00000F2FC80454B1968DA451144196000F069
:103C00005381D9F80000DFF810E101301BBFCAEB87
:103C10000B0A5144CEF800B019601BF0070100F008
:103C20001781C1F10800C1F58051834408315A441D
:103C3000C2F30B02C2EB010949463046019300F082
:103C400071F9431C019B00F03F81CBEB00024A4419
:103C500042F001021968C7F808B04944BC42CBF8E9
:103C600004201960DFF8A49016D0B8F10F0F40F2CD
:103C7000FD806268A8F10C0323F00703E01802F04E
:103C800001024FF0050E1A430F2B6260C0F804E0EA
:103C9000C0F808E000F21C811D4BBC681A68914214
:103CA00088BF19601B4B1A689142626888BF19600F
:103CB00022F003029542A2EB050301D80F2B04DC8E
:103CC000304600F02DF9002438E7621943F0010373
:103CD00045F0010565603046BA60536000F020F998
:103CE0000834204603B0BDE8F08F142B71D9542B53
:103CF00000F2A480280B00F16F0E4FEA4E036E30E5
:103D000076E600BF0C8CFF1F8094FF1F8494FF1F7A
:103D10007C94FF1F7894FF1F1890FF1F5A0A042AF3
:103D20005ED9142A00F2B38002F15C0149005B32D3
:103D300007EB810C57F82110DFF8DC81ACF1080C9F
:103D40008C4500F088804A6822F00302934202D238
:103D500089688C45F7D1D1F80CC07A68C4F80CC0DA
:103D6000A160CCF80840CC6088E6631942F00107F6
:103D700045F00105656030464B610B61C3F80CE00E
:103D8000C3F808E05F609A50083400F0C9F8D5E63F
:103D90004A6873E608F1010818F0030F0CF1080CEB
:103DA0007FF47FAE30E0DC68A34208BF02303FF40E
:103DB00035AEB3E60B440C465A68C96854F8085F40
:103DC00042F001025A603046E9608D6000F0A8F8C8
:103DD000B4E603F15C0E03F15B004FEA4E0307E625
:103DE0009A0902F1390149003832A1E7BC424A4B35
:103DF0003FF400AF9C68626822F003025AE759F86A
:103E00000839994540F0828010F0030F00F1FF302F
:103E1000F5D17B6823EA04037B6064009C423FF693
:103E2000BDAE002C3FF4BAAE1C4240467FF435AE26
:103E300064001C4200F10400FAD02EE6B3F5AA7F1C
:103E400018D8E80B00F1780E4FEA4E037730CFE533
:103E50004FF48051EBE60121D8F80430921001FABA
:103E600002F21A43C8F80420614677E70123CBF831
:103E7000043025E740F25452934220D8A80C00F1B8
:103E80007D0E4FEA4E037C30B2E51032A4E6542A90
:103E900026D81A0B02F16F0149006E3248E7BC6860
:103EA000626822F0030205E7CAF30B0000287FF4E2
:103EB000A8AE4244BB6842F001025A60ECE6FE2321
:103EC0004FF07F0E7E2093E501224FF00009C1E6FE
:103ED00004F10801304600F0A9F8D9F80010DBE63B
:103EE000B2F5AA7F05D8DA0B02F1780149007732E2
:103EF0001EE740F254518A4205D89A0C02F17D0126
:103F000049007C3214E7FE217E2211E77B6884E7BA
:103F1000E808431C5B00F8E50C8CFF1F704700BFEE
:103F2000704700BF38B5074C00230546084623609C
:103F3000FCF726FE431C00D038BD2368002BFBD0C5
:103F40002B6038BDC094FF1F024B13B1024800F034
:103F500005B8704700000000693F000000230146DB
:103F60001A46184600F04AB938B5074D074C2C1BC5
:103F7000A41005D0013C55F8043D9847002CF9D118
:103F8000BDE8384000F00EBA00000000000000005C
:103F9000F8B5234F0C460646FFF7C0FFBB685D68C7
:103FA00025F00305291B01F6EF7121F47F6121F053
:103FB0000F01A1F58054B4F5805F07DB0021304686
:103FC000FFF7B0FFBB682B44984204D03046FFF7A0
:103FD000A7FF0020F8BD61423046FFF7A3FF013084
:103FE0000DD0104BBA6819682D1B45F001053046FD
:103FF000091B55601960FFF793FF0120F8BD0021F0
:104000003046FFF78FFFBA68831A0F2BDEDD064CB0
:104010000449246843F00103001B53600860D5E79E
:104020000C8CFF1F8494FF1F1890FF1F002945D0A0
:104030002DE9F0410D468046FFF770FF55F8047CEE
:104040006A4927F00103A5F10804E2188E68506858
:10405000B24220F0030062D0FE0750600BD455F846
:10406000087CE41B01F1080EA56875453B446FD040
:10407000E768EF60BD6015186D68ED0742D543F045
:1040800001026260E350B3F5007F18D2DB085A1CCE
:104090004D6851F83270A76001209B1000FA03F3BD
:1040A00001EBC2001D430838E0604D6041F832402A
:1040B000FC604046BDE8F041FFF732BF70475A0A46
:1040C000042A53D89A0902F139077F0002F1380512
:1040D00001EB870051F827204449083890424DD021
:1040E000516821F003018B4202D292689042F7D1CD
:1040F000D068E060A2608460D4604046BDE8F041D2
:10410000FFF70EBF95683A4FBD4203443FD0D068D9
:10411000E86043F0010285606260E350B3E7FF07A7
:10412000034407D455F8082CA41A1344A068E26885
:10413000C26090602F4A126843F0010093426060B1
:104140008C60B6D32C4B40461968FFF721FFB0E7CF
:1041500011184968C90744D49168D268CA600344F9
:1041600043F0010091606060E350A2E7142A17D881
:1041700002F15C077F0002F15B05A9E7AA104B681A
:10418000012505FA02F213434B600246B1E743F002
:1041900001024C610C61E560A5606260E35088E754
:1041A000542A06D81A0B02F16F077F0002F16E0540
:1041B0008EE7B2F5AA7F06D8DA0B02F178077F0006
:1041C00002F1770584E740F25450824206D89A0CF7
:1041D00002F17D077F0002F17C0579E7FE277E254D
:1041E00076E743F001026260E35062E70C8CFF1F48
:1041F000148CFF1F1490FF1F8094FF1F2DE9F047C0
:10420000254C2568D5F84841064688469246994689
:10421000C4B360681F2817DC431C76B104EB80052B
:104220000122C5F888A0D4F8881182401143022EDB
:10423000C4F88811C5F808911ED00230636044F8B4
:1042400020800020BDE8F087144B03B34FF4C87002
:10425000FFF7A4FB0446D0B1D5F84831002780E829
:104260008800C5F8484138460123C4F88871C4F86D
:104270008C71002EE1D0D1E7D4F88C110A43C4F838
:104280008C21DAE705F5A674C5F84841C1E74FF07F
:10429000FF30BDE8F08700BF8C4300009D3900006F
:1042A000546865726D6973746F7220726573697397
:1042B00074616E636520000054656D706572617491
:1042C0007572652000000000202A43000D0AFFFFE0
:1042D0006E616E006F766600696E6600050E0809F5
:1042E0000D0C06070F0400130393050E08090D0CAF
:1042F00006070F04FFFFC585848687C4FFFF0013F0
:1043000003931A9217FFFFFF000000000000000057
:10431000191B0000111B00000D1B0000091B0000F1
:10432000051B0000011B0000FD1A0000F91A000027
:1043300000151915000100003C87FF1F1200000046
:10434000000200006887FF1F430000000003000018
:10435000C487FF1F00000000010309045087FF1FEE
:104360000000000002030904AC87FF1F00000000EA
:1043700003030904C887FF1F0000000000000000BD
:1043800000000000000000006C6F6700E087FF1F66
:10439000F8B500BFF8BC08BC9E467047493F000016
:0443A00035040000E0
:0443A400F8B500BFA9
:1043A8000A040000C494FF1F10430000000000002E
:1043B800E803000000000000FFFFFFFF12011001EA
:1043C80002000040C01683047502010203010000C8
:1043D80018035400650065006E00730079006400DE
:1043E800750069006E006F0009024300020100C0F9
:1043F8003209040000010202010005240010010531
:10440800240101010424020605240600010705828F
:104418000310004009040100020A00000007050318
:104428000240000007058402400000001603550002
:1044380053004200200053006500720069006100CB
:104448006C000000040309040C03000000000000D5
:104458000000000000000000000000000000010053
:1044680000000000CC8AFF1F348BFF1F9C8BFF1FAE
:104478000000000000000000000000000000000034
:104488000000000000000000000000000000000024
:104498000000000000000000000000000000000014
:1044A8000000000000000000000000000000000004
:1044B80000000000000000000000000000000000F4
:1044C80000000000000000000000000000000000E4
:1044D80000000000000000000000000000000000D4
:1044E80000000000000000000000000000000000C4
:1044F80000000000000000000000000000000000B4
:1045080000000000000000000100000000000000A2
:104518000E33CDAB34126DE6ECDE05000B00000067
:104528000000000000000000000000000000000083
:104538000000000000000000000000000000000073
:104548000000000000000000000000000000000063
:104558000000000000000000000000000000000053
:104888000000000000000000E087FF1F000000009B
:10489800000000000C8CFF1F0C8CFF1F148CFF1FE6
:1048A800148CFF1F1C8CFF1F1C8CFF1F248CFF1FE8
:1048B800248CFF1F2C8CFF1F2C8CFF1F348CFF1F98
:1048C800348CFF1F3C8CFF1F3C8CFF1F448CFF1F48
:1048D800448CFF1F4C8CFF1F4C8CFF1F548CFF1FF8
:1048E800548CFF1F5C8CFF1F5C8CFF1F648CFF1FA8
:1048F800648CFF1F6C8CFF1F6C8CFF1F748CFF1F58
:10490800748CFF1F7C8CFF1F7C8CFF1F848CFF1F07
:10491800848CFF1F8C8CFF1F8C8CFF1F948CFF1FB7
:10492800948CFF1F9C8CFF1F9C8CFF1FA48CFF1F67
:10493800A48CFF1FAC8CFF1FAC8CFF1FB48CFF1F17
:10494800B48CFF1FBC8CFF1FBC8CFF1FC48CFF1FC7
:10495800C48CFF1FCC8CFF1FCC8CFF1FD48CFF1F77
:10496800D48CFF1FDC8CFF1FDC8CFF1FE48CFF1F27
:10497800E48CFF1FEC8CFF1FEC8CFF1FF48CFF1FD7
:10498800F48CFF1FFC8CFF1FFC8CFF1F048DFF1F86
:10499800048DFF1F0C8DFF1F0C8DFF1F148DFF1F33
:1049A800148DFF1F1C8DFF1F1C8DFF1F248DFF1FE3
:1049B800248DFF1F2C8DFF1F2C8DFF1F348DFF1F93
:1049C800348DFF1F3C8DFF1F3C8DFF1F448DFF1F43
:1049D800448DFF1F4C8DFF1F4C8DFF1F548DFF1FF3
:1049E800548DFF1F5C8DFF1F5C8DFF1F648DFF1FA3
:1049F800648DFF1F6C8DFF1F6C8DFF1F748DFF1F53
:104A0800748DFF1F7C8DFF1F7C8DFF1F848DFF1F02
:104A1800848DFF1F8C8DFF1F8C8DFF1F948DFF1FB2
:104A2800948DFF1F9C8DFF1F9C8DFF1FA48DFF1F62
:104A3800A48DFF1FAC8DFF1FAC8DFF1FB48DFF1F12
:104A4800B48DFF1FBC8DFF1FBC8DFF1FC48DFF1FC2
:104A5800C48DFF1FCC8DFF1FCC8DFF1FD48DFF1F72
:104A6800D48DFF1FDC8DFF1FDC8DFF1FE48DFF1F22
:104A7800E48DFF1FEC8DFF1FEC8DFF1FF48DFF1FD2
:104A8800F48DFF1FFC8DFF1FFC8DFF1F048EFF1F81
:104A9800048EFF1F0C8EFF1F0C8EFF1F148EFF1F2E
:104AA800148EFF1F1C8EFF1F1C8EFF1F248EFF1FDE
:104AB800248EFF1F2C8EFF1F2C8EFF1F348EFF1F8E
:104AC800348EFF1F3C8EFF1F3C8EFF1F448EFF1F3E
:104AD800448EFF1F4C8EFF1F4C8EFF1F548EFF1FEE
:104AE800548EFF1F5C8EFF1F5C8EFF1F648EFF1F9E
:104AF800648EFF1F6C8EFF1F6C8EFF1F748EFF1F4E
:104B0800748EFF1F7C8EFF1F7C8EFF1F848EFF1FFD
:104B1800848EFF1F8C8EFF1F8C8EFF1F948EFF1FAD
:104B2800948EFF1F9C8EFF1F9C8EFF1FA48EFF1F5D
:104B3800A48EFF1FAC8EFF1FAC8EFF1FB48EFF1F0D
:104B4800B48EFF1FBC8EFF1FBC8EFF1FC48EFF1FBD
:104B5800C48EFF1FCC8EFF1FCC8EFF1FD48EFF1F6D
:104B6800D48EFF1FDC8EFF1FDC8EFF1FE48EFF1F1D
:104B7800E48EFF1FEC8EFF1FEC8EFF1FF48EFF1FCD
:104B8800F48EFF1FFC8EFF1FFC8EFF1F048FFF1F7C
:104B9800048FFF1F0C8FFF1F0C8FFF1F148FFF1F29
:104BA800148FFF1F1C8FFF1F1C8FFF1F248FFF1FD9
:104BB800248FFF1F2C8FFF1F2C8FFF1F348FFF1F89
:104BC800348FFF1F3C8FFF1F3C8FFF1F448FFF1F39
:104BD800448FFF1F4C8FFF1F4C8FFF1F548FFF1FE9
:104BE800548FFF1F5C8FFF1F5C8FFF1F648FFF1F99
:104BF800648FFF1F6C8FFF1F6C8FFF1F748FFF1F49
:104C0800748FFF1F7C8FFF1F7C8FFF1F848FFF1FF8
:104C1800848FFF1F8C8FFF1F8C8FFF1F948FFF1FA8
:104C2800948FFF1F9C8FFF1F9C8FFF1FA48FFF1F58
:104C3800A48FFF1FAC8FFF1FAC8FFF1FB48FFF1F08
:104C4800B48FFF1FBC8FFF1FBC8FFF1FC48FFF1FB8
:104C5800C48FFF1FCC8FFF1FCC8FFF1FD48FFF1F68
:104C6800D48FFF1FDC8FFF1FDC8FFF1FE48FFF1F18
:104C7800E48FFF1FEC8FFF1FEC8FFF1FF48FFF1FC8
:104C8800F48FFF1FFC8FFF1FFC8FFF1F0490FF1F77
:0C4C98000490FF1F00000200FFFFFFFF60
:00000001FF
