:1000000000800020BD01000031140000E913000051
:10001000E9130000E9130000E9130000E9130000F0
:10002000E9130000E9130000E91300003114000097
:1000300031140000E91300009D290000A12A0000EE
:10004000311400003114000031140000311400009C
:10005000311400003114000031140000311400008C
:10006000311400003114000031140000311400007C
:10007000311400003114000031140000311400006C
:10008000311400003114000031140000311400005C
:10009000311400003114000031140000311400004C
:1000A000311400003114000031140000311400003C
:1000B000311400003114000031140000311400002C
:1000C000311400003114000031140000311400001C
:1000D000311400003114000031140000311400000C
:1000E00031140000311400003114000031140000FC
:1000F00031140000BD2B000031140000E92C000079
:1001000031140000152E00003114000031140000DD
:1001100031140000311400003114000031140000CB
:1001200031140000311400003114000031140000BB
:1001300031140000311400003114000031140000AB
:10014000311400003114000031140000311400009B
:10015000311400003114000031140000311400008B
:1001600031140000F11800003114000031140000B7
:10017000311400003114000031140000311400006B
:10018000311400003114000031140000311400005B
:10019000311400003114000031140000311400004B
:1001A000311400003114000031140000311400003B
:1001B000311400003114000031140000564B4CF291
:1001C000205210B51A804DF628121A8000BF00BFC9
:1001D00001F032F9514B4FF010621A60504A9A60A8
:1001E000504ADA60504A136813F4807304D14F49BF
:1001F0000B604FF4A85313604D4B1A78110703D5C9
:100200001A7842F008021A704A4B4B492A221A7097
:100210004A4A4B4B8B4204D252F8040F43F8040B6A
:10022000F8E7484B484900228B4202D243F8042B9E
:10023000FAE74649464A002352F8230041F82300D2
:1002400001336F2BF8D1434B434A802103F8011B44
:100250009342FBD1414B3D4A1A60414B8A221A70AE
:10026000A3F5805324225A70A0221A709A7992071B
:10027000FCD59A79D406FCD43A4A937903F00C035E
:10028000082B384BF9D105221A7143225A719A79F9
:100290009006FCD5334A9179324B4906FBD5324A58
:1002A0004FF0817111600521516020221A709A79F6
:1002B00002F00C020C2AFAD12C4B2D4A1A602D4B5D
:1002C0002D4A1A6000225A60072243F8042C2B4A58
:1002D000C3F80C2D62B601F0C1F9144B1B68DA07A4
:1002E00005D5274801F04CF9264B274A1A60274BC1
:1002F0001B785B0609D5234C234B22689A4204D114
:100300001F4801F03DF90023236004F099FE01F03D
:1003100099F801F061F8FEE70E20054030800440B6
:10032000823F04000100002B10D0034014D0034092
:1003300002D0074000E007401C90FF1F0C5D00004A
:100340002087FF1F1C90FF1FFC93FF1F0082FF1FD1
:100350000000000000E400E05FE400E008ED00E0E1
:1003600000500640004006404480044004800440A1
:10037000C010050014E000E03F190100000020203B
:100380006C17EB5D1CE00340A5C3945A00F00740D6
:10039000FFFFFFFFFFFFFFFFFFFFFFFFFFFFFFFF6D
:1003A000FFFFFFFFFFFFFFFFFFFFFFFFFFFFFFFF5D
:1003B000FFFFFFFFFFFFFFFFFFFFFFFFFFFFFFFF4D
:1003C000FFFFFFFFFFFFFFFFFFFFFFFFFFFFFFFF3D
:1003D000FFFFFFFFFFFFFFFFFFFFFFFFFFFFFFFF2D
:1003E000FFFFFFFFFFFFFFFFFFFFFFFFFFFFFFFF1D
:1003F000FFFFFFFFFFFFFFFFFFFFFFFFFFFFFFFF0D
:10040000FFFFFFFFFFFFFFFFFFFFFFFFDEF9FFFF23
:1004100010B5054C237833B9044B13B10448AFF33E
:1004200000800123237010BD1C90FF1F00000000FE
:10043000105D0000084B10B51BB108490848AFF328
:1004400000800848036803B910BD074B002BFBD0A0
:10045000BDE81040184700BF000000002090FF1FBB
:10046000105D00001C90FF1F0000000010B5134C31
:1004700000222068114600F061FA4FF0FF32206838
:10048000102100F065FA0121032001F091F801210B
:10049000042001F08DF80121022001F089F80021EB
:1004A000032001F07FF80021042001F07BF80021F7
:1004B0000220BDE8104001F075B800BF3890FF1F62
:1004C0002DE9F04383B002F07FF8002840F30C815F
:1004D00002F03EF802F056F90021032001F062F824
:1004E0000021042001F05EF800210220BC4CBD4F29
:1004F00001F058F804F1C806254600220E2138689C
:1005000000F03AFA45F8040F0A2001F057F8AE421D
:10051000F3D1002554F8040F04F072FB014628467D
:1005200004F0BAFAA6420546F4D1AF4904F070FCD3
:100530000D210446AD4802F071F8204603F032FF69
:10054000022502460B460095A94800F06DFEA8481A
:1005500000F01AFE0021386800F004FA04F04CFBA9
:10056000214604F055FC4FF07E5104F093FA014609
:10057000A04804F04DFC172106469F4802F04EF8B3
:10058000304603F00FFF009502460B468046984820
:10059000894600F049FE964800F0F6FD00213868D3
:1005A00000F0E0F904F028FB0146944804F030FC28
:1005B000214604F079FB08210446914802F02EF808
:1005C000204603F0EFFE009502460B46884800F0F7
:1005D0002BFE874800F0D8FD20468A4904F064FBD2
:1005E000894904F057FA1D210446884802F016F89C
:1005F0002046874904F050FA03F0D4FE00950246E5
:100600000B467B4800F010FE0321824802F006F8FA
:10061000774800F0B9FD8049304604F045FB42467A
:1006200004464B464046494603F010FF68A3D3E911
:10063000002303F00BFF04F0D9F90146204604F033
:1006400029FA00220446754B4046494602F090FCC8
:1006500061A3D3E9002303F0F9FE04F0C7F92146B2
:1006600004F01AFA6E4904F015FA694904F014FA14
:10067000202104466B4801F0D1FF204603F092FE92
:10068000009502460B465A4800F0CEFD0321614812
:1006900001F0C4FF564800F077FD2046624904F09F
:1006A000A1FC28B16149204604F0BAFC002879D1A8
:1006B0005F49204604F096FCE0B95E49204604F00C
:1006C00091FC28B120465A4904F0AAFC00285DD1CB
:1006D0003E6806F5AC7506F5B07655F8043FDC8A41
:1006E000A4B2CCB9B542F8D1642003B0BDE8F04360
:1006F00000F064BF4C49204604F092FC0028DCD096
:1007000005214D4801F08AFF394800F03DFD0121E7
:10071000042000F047FFD0E71F7E4848032101F086
:100720007DFF394600230A22314800F03DFD0821B3
:10073000434801F073FF202C00F0AA800ED8042C4F
:1007400041D040F28D80082C00F09880102C40F0B1
:10075000A48018213B4801F061FF0FE0802C2DD0D0
:1007600040F28580B4F5807F00F08D80B4F5007F85
:1007700040F093800B21344801F050FF07213348AB
:1007800001F04CFF1A4800F0FFFCABE704213048B1
:1007900001F044FF164800F0F7FC0121022000F0B0
:1007A00001FF95E703212B4801F038FF104800F0C6
:1007B000EBFC0121032000F0F5FE79E70A21264831
:1007C00001F02CFFDAE70921244801F027FFD5E7E3
:1007D0000000004065A0013E000000A04BA9AA3C1B
:1007E0003890FF1F3890FF1F0000484294590000C6
:1007F0002487FF1F00401C46A45900006F1283404D
:10080000BC59000000A01C4400201B45C859000032
:1008100000009041E85900008629003A0000084095
:10082000CDCCD142EC5900000000A0410000204195
:100830000000F04100002042145A0000245A000039
:10084000285A0000645A0000BC5A0000D05A000028
:100850001C5A0000105A0000585A0000405A00006C
:10086000022C1AD10B210F4801F0D8FE86E7402C4C
:1008700013D11C210C4801F0D1FE7FE70B210B485E
:1008800001F0CCFE7AE70921094801F0C7FE75E7BF
:100890000F21084801F0C2FE70E70721064801F069
:1008A000BDFE6BE7345A0000905A00004C5A00001D
:1008B000B05A0000805A0000C85A000010B54FF42A
:1008C000B27000F0D7FD044600F006F8014B1C6042
:1008D00010BD00BF3890FF1F38B5124A124B00F10F
:1008E000A8050021044600F0DBFA28460F4B104A09
:1008F000012100F0D5FA0F490F4A022384F8503144
:100900000B68C4F8585143F00063C4F86051C4F850
:100910005441C4F85C410B60136843F00063204607
:10092000136038BDDC5A0000345B0000D85A000068
:10093000085B00003C80044030800440012A03D062
:10094000D0F8540100F06CB8D0F8580100F068B845
:10095000012A03D0D0F8540100F038B9D0F858017A
:1009600000F034B9012903D0D0F8540100F088B860
:10097000D0F8580100F084B8531C13D02AB1012AD2
:1009800007D1D0F8580100F071BBD0F8540100F045
:100990006DBBD0F854212148D38A9BB243F00103A8
:1009A000D382704770B50446D0F854010D4600F06C
:1009B00035FB29460646D4F8580100F02FFB76B1E6
:1009C000A8B1D4F85431D4F85801597D427D9142F0
:1009D00098BF18462946BDE8704000F047BB68B193
:1009E0002946D4F85801BDE8704000F03FBB2946C5
:1009F000D4F85401BDE8704000F038BBD4F854116D
:100A0000D4F85821CB8A05489BB243F00403CB822B
:100A1000D38A9BB243F00403D38270BD90EEFEFFF5
:100A200090F821308B421BD0012970B419D051B9F4
:100A3000104A114B11701970036D80F821105B0181
:100A400003F18443196072B6436D5B0103F1844383
:100A5000012200214276D9619A61DA6162B670BCE6
:100A60007047064D034A044B6026E1242E70147033
:100A7000E1E700BF014007404000FA420040074064
:100A8000C069704738B5437E04460D46DBB9636DD7
:100A9000012D4FEA431303F184431DD90121042D95
:100AA000996009D9082D23D9102D1AD9202259600F
:100AB000196084F8202038BD002104225960196093
:100AC00084F8202038BD00F01BF8636D012D4FEA3B
:100AD000431303F18443E1D800229A6084F8202074
:100AE00038BD00221A601022596084F8202038BDD9
:100AF000002008221960586084F8202038BD00BF0B
:100B0000F8B5436D5B0103F184430446DA6942B1F1
:100B100001F088FE636D5B0103F18443DA69002A0A
:100B2000F6D19B6923B1E38A9BB243F00203E382CF
:100B300072B6637E002B36D0E16E236F626F0F6852
:100B4000A06F1B68E16F16680568D4F880200968FB
:100B50001268206E3B4433442B440B441344C3F3CC
:100B60004E03D4F88850D4F88C10D4F8902043F475
:100B7000004303602F68D4F894000B681668D4F81B
:100B800098100568D4F89C2009681268606E3B4490
:100B900033442B440B441344C3F34E0343F4004348
:100BA00000220360627662B6A37E6BB1022120460A
:100BB00000F054F80221204600F0E0F8042120461D
:100BC000FFF760FF0023A376F8BD00BF38B5C37EF2
:100BD0008B4211D0437E04460D466BBB092D0CD8C9
:100BE000A36B5B0103F1844300210822D960FF203D
:100BF0009960E276E06138BD38BD0B2D1FD90D2D0F
:100C00000DD8A36B5B0103F1844301229A6000209D
:100C10000C22D86040F6FF71E276E16138BDA36B2B
:100C20005B0103F1844301211022D9604FF6FF706C
:100C30009960E276E06138BDFFF762FFCEE7A36B13
:100C40005B0103F1844300229A6001200A22D860EC
:100C500040F2FF31E276E16138BD00BF90F8233009
:100C60008B4258D070B5437E05460C46002B35D1DB
:100C7000A31F032BEA6B17D9520102F18442002013
:100C8000D060002C2DD1AB6B94605B0103F18443E9
:100C900001221146DA6116460020196058605E6133
:100CA0009A6185F8234070BDAB6B52015B0103F183
:100CB000844302F1844201210020062CD160596056
:100CC00019609861586127D0072C2AD0082C0CBFD6
:100CD00090609160D86185F8234070BDFFF710FFE8
:100CE000C6E7012C0DD0022C29D0032C31D0042CC6
:100CF0003AD0052C18D0EB8A9BB243F00103EB826B
:100D000070BDAB6B90605B0103F184432146DC61F5
:100D100022462646C0E770479060D96185F8234097
:100D200070BD9160D961BCE7AB6B5B0103F184439B
:100D30000126966001460246D8610646ACE7AB6BD9
:100D400090605B0103F184430122D861014616469D
:100D5000A2E7AB6B5B0103F1844301269660014679
:100D60003246D861064697E7AB6B5B0103F18443DB
:100D7000012696600146D86102468DE738B5437E6C
:100D800004460D467BB9042D0AD8DFE805F00F1F95
:100D90002F3F0300A36B5B0103F1844300221A6120
:100DA00084F8245038BDFFF7ABFEECE7A26BE36B91
:100DB00052015B0103F1844302F1844200210120CE
:100DC00010615960196084F8245038BDA26BE36B40
:100DD00052015B0103F1844302F1844201210020AE
:100DE00011611960586084F8245038BDA26BE36B20
:100DF00052015B0103F1844302F18442012100208E
:100E000011611860596084F8245038BDA26BE36BFF
:100E100052015B0103F1844302F18442012111611B
:100E20005960196084F8245038BD00BFC36B5B0162
:100E300003F18443022270B505210026012580F8C4
:100E40002120042280F82420044680F82310C6764E
:100E5000C66180F820604676C682467580F82250CA
:100E600031461D61FFF7DCFD0A21FFF7AFFE20468A
:100E7000A5762021FFF706FE29462046FFF7EEFE65
:100E800029462046FFF77AFF72B6636D65765B01EF
:100E900003F18443DE619D61DD6162B670BD00BF18
:100EA000F8B504468262C362017600294CD04D4BEE
:100EB00023631C33E3644C4F4C4E4D4D4D484E491B
:100EC0004E4A67631833A3662033A663E563206444
:100ED0006164A264C4F884301C371C364435183071
:100EE00018311832A3F5052327656665A565E06509
:100EF0002166626618371836103D1C301C311C32D2
:100F00001C3BE76626676567A067E167C4F8802039
:100F100020312032C4F8A03020373A232036203543
:100F20002030C4F89400C4F888702046C4F88C605F
:100F3000C4F89050C4F89810C4F89C2084F8A430E9
:100F4000FFF774FF2046F8BD2D4B23631C33E36489
:100F50002C4F2D4E2D4D2E482E492F4A67631833A6
:100F6000A3662033A663E56320646164A264C4F8C9
:100F700084301C371C364435183018311832A3F52C
:100F8000A04327656665A565E0652166626618373A
:100F90001836103D1C301C311C32443BE766266776
:100FA0006567A067E167C4F8802020312032C4F86B
:100FB000A03020373923203620352030C4F8940063
:100FC000C4F888702046C4F88C60C4F89050C4F807
:100FD0009810C4F89C2084F8A430FFF727FF20461F
:100FE000F8BD00BF00B00B4004B00B4008B00B4090
:100FF0000CB00B4010B00B4014B00B4018B00B40BD
:1010000000B0034004B0034008B003400CB00340FC
:1010100010B0034014B0034018B003402B2907D888
:10102000836A585C00F01F001F3818BF012070470A
:1010300000207047836AC26B5B5C5201190602F1A3
:1010400084424CBF00210121116172B6016B4A013B
:1010500002F1844203F01F039269003218BF01229B
:1010600003EB82130B6062B6704700BF2B292DE99A
:10107000F84F82465BD8836A5B5C03F01F031F2B2B
:1010800055D0437D427E01338B464375002A75D18E
:10109000DAF850305B0103F18443DC69003418BF97
:1010A0000124002C4DD1A046A146264627462546C0
:1010B000DAF854305B0103F1844300225946DA60C8
:1010C0005046FFF7B7FF01E001F0ACFBDAF8503013
:1010D0005B0103F18443DB69002BF5D172B6DAF8CA
:1010E00030305B0103F18443DB69002B3DD0DAF83B
:1010F0004030186880B262B694B172B6DAF838201F
:10110000DAF83C30DAF85010C2F80090DAF85420DF
:10111000C3F80080DAF830300F6016601D6062B6E8
:101120009AF81530013B8AF81530BDE8F88FBAF807
:10113000163014489BB243F00403AAF81630BDE8F9
:10114000F88F72B6DAF83050DAF83800DAF83C1076
:10115000DAF85020DAF854302D68D0F80090D1F841
:10116000008017681E6862B6A2E7BAF81630054814
:101170009BB243F08003AAF81630BCE7FFF7C0FC2F
:1011800086E700BF90EEFEFF00B5064A03681288AE
:101190005B6883B001A9ADF804200222984703B030
:1011A0005DF804FB385B0000F0B507468BB0002A01
:1011B00033D0012A08BF0A2251B3212400E0F4B23F
:1011C000B1FBF2F502FB1511C8B2092900F130019B
:1011D00098BFC8B20AA988BF3730214488BFC0B2BF
:1011E00001F8240C661E2946002DE8D133B1013CDC
:1011F000E4B20AAB23442D2203F8242C3B6801AA55
:1012000011195B683846C4F1220298470BB0F0BD53
:1012100030228DF825202124E8E70368C9B21B6835
:1012200098470BB0F0BD00BF2DE9F04385B0804674
:101230001946104616461F469DF8305003F0A0FB95
:10124000002840F0B18027F00044304621464FF09E
:10125000FF32594B03F094FB98B9304621464FF0CA
:10126000FF32554B03F06EFB58B9D8F800305349A4
:101270005B684046032298478146484605B0BDE872
:10128000F083304639464FF060424D4B03F06EFB21
:10129000002870D1304639464FF06042494B03F088
:1012A00047FB002867D1304639460022002303F06F
:1012B0003FFB002863D18146002D65D0424B0024BE
:1012C0000022104619463AA3D3E9002303F0BEF8E2
:1012D00001340B46E1B28D420246F2D8304639461F
:1012E00002F002FF0F46064603F060FB044603F0DF
:1012F00037F802460B463046394602F0F3FE4B46BD
:1013000006460F460A2221464046FFF74DFF0F2DA5
:1013100028BF0F2501352E238146EDB28DF8003010
:1013200001240022294B3046394603F08FF80F463E
:10133000064603F03BFB04AB2344C0B200F130028D
:1013400003F8102C03F01CF802460B4630463946D1
:1013500002F0C8FE0134E4B2AC4206460F46E0D1CA
:10136000D8F8003022465B684046694698474846B0
:1013700005B0BDE8F083D8F80030154978E707F1EB
:1013800000474FF0010997E700220F4B30463946DE
:1013900002F0AAFE03F00AFB4B4601460A22404631
:1013A000FFF702FF814668E7D8F8003009495FE798
:1013B000000000A09999B93FFFFFEF7F445B000058
:1013C000FFFFEF41FFFFEFC10000E03F00002440BE
:1013D000405B00003C5B000008B5FFF747F8FFF7F3
:1013E0006FF801F01FFAFAE708B5104C08E023681F
:1013F00059050DD423681A050FD42368DB0411D4D2
:1014000023685803F3D500F073FA23685905F1D522
:1014100001F0D4FB23681A05EFD501F065FC2368C1
:10142000DB04EDD501F0F6FCEAE700BF34800440B0
:1014300008B5FFF7D9FF00BF014B10221A80704793
:1014400000200540704700BF094908B50B6830B15E
:101450006A461844A2F58052904202D208601846AB
:1014600008BD03F0E7FD0C2303604FF0FF3008BD1B
:101470002087FF1F03F00CBEF0B44D1E2E46002443
:1014800000E00134B0FBF2F302FB1300092800F185
:1014900030078ABF3730F8B2C0B206F8010F1846DD
:1014A000002BEED10A1953704CB1107815F8016F6A
:1014B00028700133E01A834202F80169F5DB08461F
:1014C000F0BC704710B40F4B53F8302092F88042B4
:1014D0002CB1012369B182F8803010BC704703EB56
:1014E000C0035B681A6841B922F002021A6010BC9E
:1014F000704782F8003110BC704742F003021A6056
:1015000010BC7047485B00001C4A02EBC003012975
:101510005B6811D004291BD052F83000002280F8FB
:10152000802229B1022920D0032922D01A607047D5
:101530004FF480721A60704752F830004FF4A27274
:1015400080F880121A601A6822F020021A60704730
:1015500052F830104FF4A272012081F880021A6014
:101560001A6842F020021A60704740F203121A60B3
:1015700070474FF481721A60704700BF485B0000EB
:1015800030B4054B054D064C002210211A602A602C
:101590002060196030BC704714D0034004D0034071
:1015A00000D00340212801D8FFF78CBF704700BF4F
:1015B000212801D8FFF7A8BF704700BF2DE9F843E5
:1015C000054672B6214F224B224A1B683C681268BE
:1015D00062B6520102D5322B88BF0134A5B3C3F5E0
:1015E0008C331D4EDFF86890DFF8688003F23F13FC
:1015F0004FF47A72A6FB031302FB04F404EB1314FA
:1016000072B6D9F800103A68D8F800E062B6C1F5B1
:101610008C3303F23F13A6FB03031EF0806FC4EB71
:1016200013134FF47A7002D0322988BF013200FBC5
:101630000233B3F57A7F04D3013D05D004F57A7403
:10164000DEE701F0EFF8DBE7BDE8F8830491FF1F68
:1016500018E000E004ED00E0398EE338F8B52D4BDA
:101660002D49DFF8D0E0DFF8D0C02C4E2C4D2D4CAA
:101670002D4A2E4F4FF4000018604FF08070186014
:101680004FF0007018604FF0806018604FF00060FD
:10169000186000200860282348F6FF71CCF800107D
:1016A000CEF80030336013602B6023603B60B36280
:1016B0009362092245F8242CC4F8D80F05F57F65FC
:1016C000C7F8D41F07F5FF2707F5FA67C6F8F83FF4
:1016D0002B6006F5FF26C4F8D42F05F5FD2504F58B
:1016E000FF24386006F2F4761148316005F5FF6595
:1016F00004F5FD642B602360026001F0DFF919201E
:10170000FFF75CFF00F05CFE40F21310BDE8F8400C
:10171000FFF754BF08E100E0048003401480034059
:10172000248003402C8003401C800340348003400D
:1017300000800B400C80034008800340431E032BB5
:1017400014D872B60A4951F8230068B170B4094C34
:10175000058834F81320466841F82360521B24F8AA
:10176000132062B670BC704762B6704700207047A5
:101770006091FF1FE493FF1F013803280BD872B656
:10178000074B53F8203043B100205B680130002B39
:10179000FBD162B67047002070471846F9E700BFDA
:1017A000B491FF1F30B472B62B4A13781D0706D5CB
:1017B0002A4B196A002936D0996A002941D05378FA
:1017C0001C0706D5254B196C00293ED0996C0029C1
:1017D00039D09378190705D5204B196E002936D0DA
:1017E000996E89B1D3781B0707D51C4BD3F880209D
:1017F0007AB3D3F8882011213AB162B6184B00228F
:101800001A7030BC00F07EBE0D21154C154D2278AB
:1018100043F8315003EBC1030830013A586022709D
:1018200062B630BC704704220D4C0F4D217843F84E
:10183000325003EBC20308304A1E5860227062B671
:10184000EFE70521E1E70921DFE70822ECE70C22B9
:10185000EAE71022E8E700BF805C00000080FF1F7D
:10186000DD91FF1FC800400088004000431E032B8D
:101870001DD81B4A400140F0100030B4104472B62D
:10188000184CE25C032A1BD8DFE802F0021215179D
:1018900003220D88E25410F0080F14BFC8238823D8
:1018A00043EA054308310360416062B630BC7047CB
:1018B00008300222EDE70522EBE708300422E8E7D2
:1018C000094A52F8230038B1084A52F8230041600F
:1018D00042F8231062B6E9E742F82310034AF7E71B
:1018E0000080FF1FEC91FF1FB491FF1FC491FF1FE9
:1018F0002DE9F04FDFF80CB3DFF80CA387B044E01C
:10190000AB4F4FEA930807EBC809013ED9F8042012
:1019100003F00803F6B2A2F1080003F0FF04002B65
:1019200040F0028157F838301B0C99B222F8081C9D
:10193000002B00F0F0809F4B22F8064C42F8044C3C
:1019400053F82620002A00F0C5829B4D55F826301A
:1019500058609A4C45F8260034F81630194424F89B
:10196000161000F0AFFD002800F0AD82944A954BB0
:1019700019F0080F00F1080018BF1346C9F8040059
:1019800047F8383008238BF800309BF80040E4B269
:1019900061071AD58C4B1B78A3B18C490A7802F0E9
:1019A000FF0322B1013BDBB20B7003B900BE8849D3
:1019B0000A7802F0FF032AB1013BDBB20B70002B67
:1019C00000F0578204238BF8003004F0080303F082
:1019D000FF02002B00F0CC809AF80030DBB21E0929
:1019E0008ED19C08DFF8C89159F8342009EBC40166
:1019F000C2F38302013A49680C2A00F28880DFE8CA
:101A000002F07C7C868686868686478686860700E8
:101A10000868704D4A68704F704E286081B240F27D
:101A20008160674B6A604FF0010E0022814249F8E5
:101A300034303A60C9F81020C9F8182086F800E060
:101A40005B4C00F2E380B1F5D06F80F04683B1F5D6
:101A5000817F00F0FC8200F28D82802900F0778384
:101A6000822940F0FA82A98801F07F01042900F25E
:101A7000F4825B485B4C89000844227062700278F3
:101A8000930740F1588484F800E04FF0020E42E3DF
:101A9000514F3A6832B3544B504E544918883478F9
:101AA0000D784028864645F0020828BF4FF0400ECA
:101AB000002C84F001043470CEEB00000CBF8824AD
:101AC000C82409EBC80680B285F0010544EA0E443B
:101AD0007260188049F8384072440D70002800F098
:101AE00045813A603B4B1A88B2F5A06F0FD10021B7
:101AF0009A7859703E4B1A7009E0364A108842F2C3
:101B00002102904200F037812D4A49F83420394AA9
:101B10000123137036E72A4A2A4B19F0080F18BF21
:101B2000134647F838302DE700F0ECFC324A3349D1
:101B300052F82630002B00F0D18158688C5D42F8B5
:101B4000260003F10802C9F80420032C05D8DFE8B9
:101B500004F02C02292602228A551A8819F0080F4F
:101B60000CBF8823C82343EA024347F8383009E70B
:101B7000E00700F18181210600F1F281A20706D57C
:101B80001F4A204913780220DBB213700870E30665
:101B900002D51C4B10221A7007B0BDE8F08F04224A
:101BA0008A55DAE705228A55D7E703228A55D4E712
:101BB0000080FF1F6091FF1F0C91FF1FE493FF1F28
:101BC000C800400088004000E891FF1F7191FF1F8E
:101BD000F091FF1FD491FF1F0891FF1F7091FF1F0D
:101BE000C0200740E091FF1F1C91FF1FDC91FF1FE9
:101BF0009820074094200740B491FF1FEC91FF1FED
:101C000088200740802007409020074042F22100B2
:101C1000814200F02A8100F2D880B1F5086F00F00F
:101C20007682B1F5106F40F01882226AB349A87825
:101C30000870120600F13A83D9F82820B04913063B
:101C400000F10C83D9F83020AD49150600F101836D
:101C5000D9F83820AA49140600F1F682D9F84020B4
:101C6000A749100600F14A83D9F84820A449120672
:101C700000F13F83D9F85020A149130600F13483C5
:101C8000D9F858209E49150600F12983D9F860201B
:101C90009B49140600F11E83D9F868209849100664
:101CA00000F11383D9F870209549120600F10883DA
:101CB000D9F878209249130600F1FD82D9F88020E6
:101CC0008F49150600F13183D9F888208C49140614
:101CD00000F12583D9F890208949100600F1198375
:101CE000D9F898208649120600F10D838548864A66
:101CF000864901908648874D874C049700230596B6
:101D0000029580460F4616461D460394306828B15A
:101D1000446800F0F7FB2046002CF9D10023336023
:101D2000029B38681A46002342F8253028B14468DF
:101D300000F0E8FB2046002CF9D100223A60019A1D
:101D400098F800301146002241F8042B039A0191C3
:101D5000023B4FF0000122F81510032B00F22B81FB
:101D6000DFE813F07001250170012501BEF1400F7D
:101D700018BF0022B5E6694A0D7848781570507092
:101D80008D78C8789570D07010680D791571862897
:101D90004D7989795571917100F09B816049614E4F
:101DA0000A78307882F00105002842F002020D70B6
:101DB0000CBF8821C82149F8321009EBC20280F01B
:101DC00001000021307051609EE642F221208142E4
:101DD00040F0CB81544B554C5549A8781D6825607F
:101DE000CDF804E008700020029080468446044646
:101DF0004B490D7845F0020E09EBCE030393019B8E
:101E0000002B039B5C600CBF8824C82444EA0803B1
:101E100085F0010449F83E3032700C70DFF8E0E0E4
:101E2000404BDFF8FC80002840F01E81BCF1400FE1
:101E30001BD144F0020C09EBCC03029CDFF8C0E09C
:101E40005C60002A40F02681020442F088029DF87E
:101E500004304EF83C20044433700D702346402873
:101E600003D10020334A3B601080334A01231370B2
:101E70004DE600F0B3FCA5E5214B2F4828491A6137
:101E80004FF0020E80F800E02C4F0A702C491960C8
:101E900099602C4E2C4D2D4C9A610D213970FF21EB
:101EA0003170DFF8B8E029702270294D294A8EF888
:101EB00000109F27012406F8047C5D600470DA603E
:101EC00007B0BDE8F08F244A47F838001378013393
:101ED000137057E543F826000E4D3AE58B5D032B52
:101EE00000F2F08001A252F823F000BF8519000033
:101EF00085190000A91F0000A31F0000E891FF1F23
:101F00000080FF1FC491FF1F6091FF1FB491FF1F4E
:101F1000EC91FF1F0C91FF1FE493FF1FEC93FF1F39
:101F2000DC91FF1F7091FF1F0491FF1FF493FF1FAF
:101F30000092FF1F1C91FF1F94200740C020074004
:101F400088004000882007408020074098200740F4
:101F50002091FF1F7491FF1FDD91FF1F8C20074010
:101F6000C149C24B80220D2008701A70A2077FF56C
:101F70000EAE05E640F20232914240F0EE80A988B2
:101F800001F07F01042968D86A88002A65D1B64823
:101F9000CDF804E089000844017841F002010170A5
:101FA00021E701238B55EDE400238B55EAE44FF044
:101FB000010388F800300135042D06F1040607F10D
:101FC000040708F101087FF4A1AEA94CA94B2278BF
:101FD000A94D049F059E002129701A70130700F176
:101FE00005816278A549DFF8A0820A7010074FF0DA
:101FF0000001C9F83010C9F8381000F1E080A0499C
:10200000A2780A700021C9F85010C9F858101107B9
:10201000DFF8748200F10181E2789A499A4C0A70E3
:1020200000211207C9F87010C9F8781000F1B080CB
:1020300033780193002183F00102C9F89010C9F8A8
:102040009810D0E64FF0000388F80030B3E7A98875
:1020500001F07F01042940F28D80834A0F23137021
:102060008A4A0123137052E540287FF6E2AE44F01D
:1020700002040EEBC401029E4E60BAB19DF804103A
:10208000834A19703346403888F8005040334EF880
:102090003420E7E69DF8043033700204029B0D7093
:1020A00042F0C80203444EF83C20D8E69DF80410E4
:1020B0001970029B774A88F80050403840334EF838
:1020C0003420CFE619F0080F0CBF022303238B55F1
:1020D00058E4714A0F21117060E6704A5468002C70
:1020E000BBD06888B5F804E003E00C325468002CDB
:1020F000B3D013888342F8D153887345F5D1000AD1
:1021000003280CBF94F800E0B2F808E003E0644A4A
:10211000644C12782270E888704580F03F816249F3
:102120000D784028844645F0020E28BF4FF0400C41
:1021300004EB0C0309EBCE02029301235460CCEBB9
:1021400000004FEA0C4800220193C8245EE6554C7B
:102150004FF0020E22706270DDE7B1F5A06F7FF4E0
:102160007CAF0123002201933DE642F221329142ED
:10217000F7D072E76A88002A7FF46FAF3A48CDF84B
:1021800004E089000844017821F0020101702AE688
:1021900000F098F9002800F0EF8008303D4AC4F8BC
:1021A0008400C4F8802000F08DF9002800F0DE8063
:1021B0000830374AC9F88C00C9F8882038E700F0A1
:1021C00081F9002800F0C0800830324AC8F8440085
:1021D000C8F8402000F076F9002800F0AF80083001
:1021E0002B4AC9F84C00C9F8482008E700F06AF902
:1021F000002800F0CD800830264AC9F82400C9F82C
:10220000202000F05FF9002800F0BC800830204A50
:10221000C9F82C00C9F82820E3E600F053F900289B
:1022200000F09E8008301B4AC8F86400C8F860209F
:1022300000F048F9002800F08D800830144AC9F8F1
:102240006C00C9F86820E7E6C86B083800F05AF956
:1022500004E5486B083800F055F9F9E4C86A083815
:1022600000F050F9EEE400BFC02007408020074096
:10227000805C0000C4200740DD91FF1FC82007409C
:10228000CC200740D02007400080FF1F942007404B
:10229000C8004000880040007191FF1F845C00006E
:1022A000E891FF1FE091FF1FDC91FF1F606A083873
:1022B00000F028F9C0E4C86F083800F023F9FDE405
:1022C000486F083800F01EF9F2E4C86E083800F0D4
:1022D00019F9E7E4486E083800F014F9DCE4C86D39
:1022E000083800F00FF9D1E4486D083800F00AF919
:1022F000C6E4C86C083800F005F9BBE4486C08383F
:1023000000F000F9B0E4D1F89C00083800F0FAF8C9
:10231000ECE4D1F89400083800F0F4F8E0E4D1F8E7
:102320008C00083800F0EEF8D4E4D1F884000838C6
:1023300000F0E8F8C8E44FF0020EECE62A78C9F89D
:10234000480001322A705AE62A78C8F84000013263
:102350002A703FE72A78C9F8680001322A705BE6E4
:102360002A78C8F8600001322A7061E72A78C9F833
:10237000880001322A705BE62A78C4F880000132B6
:102380002A7010E72A78C9F8280001322A7028E656
:102390002A78C9F8200001322A7032E7BEF1400FD6
:1023A000F44628BF4FF0400C04EB0C0302930123CA
:1023B000CCEB0E004FEA0C480022019318E500BF59
:1023C000F8B500F093FD294B29482A4C2A4F2B4D94
:1023D000DFF8BCC0DFF8BCE0294E00221A605A606A
:1023E0009A60DA601A615A619A61DA611A625A6215
:1023F0009A62DA621A635A639A63DA631A645A64F5
:102400009A64DA641A655A659A65DA651A665A66D4
:102410009A66DA661A675A679A67DA67C3F880209D
:102420000168C3F8842041F480210160C3F30721CF
:102430002170C3F30740134938701B0E2B70FF2324
:102440008CF80030104D8EF8003010480B700123CE
:10245000337084F8642070264FF40074102207F85B
:102460002C3C2E70046081F8F820F8BD0080FF1F1E
:10247000348004409C200740B0200740B42007402F
:10248000942007401020074049E400E008E100E004
:10249000802007408820074000F0A4B800F07CB8F6
:1024A00000F056B800F090B800F06CB900F046B9F2
:1024B0000846114600F0B2B8084600F033B900BF34
:1024C000704700BF72B60D480268B2FA82F30B2B58
:1024D00010DC4FF00041D94022EA0102026062B6EE
:1024E000074803EBC303DB00C2180021C1501046AC
:1024F0005160704762B60020704700BF3487FF1FED
:10250000BC83FF1F0D4B0E4AC31AA2FB03231B09FA
:102510000B2B0CD80B4A127852B972B60A484FF0FE
:102520000041026821FA03F31A43026062B6704761
:10253000064A1278002AF0D0FFF734B9BC83FF1F97
:10254000398EE338DD91FF1F3487FF1FE891FF1FAD
:1025500038B50F4D286878B143880288C118013317
:1025600093420C7A02D24380204638BDFFF7CAFF5F
:10257000002320462B6038BD064B1B782BB103206F
:10258000FFF7DCF828600028E6D14FF0FF3038BDB7
:10259000FC91FF1FE891FF1F10B5094C206818B18E
:1025A00043881844007A10BD064B1B782BB10320DA
:1025B000FFF7C4F820600028F2D14FF0FF3010BDC3
:1025C000FC91FF1FE891FF1F044B054A1B68908890
:1025D0001BB11A885B88D31A18447047FC91FF1FFF
:1025E000E493FF1F0B4B1B789BB110B50A4C20687E
:1025F00048B1FFF787FF002303202360FFF79EF811
:1026000030B1FFF77FFF0320FFF798F80028F8D1DB
:1026100010BD7047E891FF1FFC91FF1F2DE9F04F9F
:10262000DFF8F89083B0012289F80020019169B3A6
:10263000DFF8EC80364F019E8346D8F80000B0B337
:10264000344D4488C4F14001B14228BF314604EB07
:10265000010E00221FFA8EFE2A70761AA0F802E000
:1026600000F1080251B1013C224459441BF8014BCE
:1026700002F8014F8B45F9D1B0F802E0BEF13F0FEF
:102680000BD8254A05211170002ED6D101980023C0
:1026900089F8003003B0BDE8F08F40220280014687
:1026A0000420FFF7E3F80022C8F80020E9E73A78B1
:1026B0002AB3184D48F601444FF0010A07E0013CE7
:1026C00016D02A78A2B900F0ADF83A78BAB1042051
:1026D000FFF752F80728F2D889F800A0FFF7F2FEBA
:1026E000C8F800000028ACD10C4B013C1870E8D1B0
:1026F00001234FF0FF302B7003B0BDE8F08F0023B3
:102700004FF0FF3089F8003003B0BDE8F08F00BF14
:10271000E891FF1FF891FF1FF091FF1FF191FF1F3C
:10272000F491FF1F00B583B002AB012103F8010D46
:102730001846FFF773FF03B05DF804FB38B50E4D84
:102740000E4C28680123237028B140880023237091
:10275000C0F1400038BD0A4B1B7813B9002020702F
:1027600038BD0420FFF708F80728F7D8FFF7AAFEBE
:1027700028600028E9D1F1E7F491FF1FF191FF1FD4
:10278000E891FF1FF8B5114B1B788BB1104E114D1E
:10279000346801272F7064B10F4A638800271770CF
:1027A000214623800420FFF761F8376000232B7057
:1027B000F8BDFFF787FE084B28B1014604201C70C6
:1027C000FFF754F8F2E71F70F0E700BFE891FF1F32
:1027D000F491FF1FF191FF1FF091FF1F38B50E4BD1
:1027E0001B7873B90D4C216861B103F0FF054B886C
:1027F0000B800420FFF73AF8256038BD084B012212
:102800001A7038BDFFF75EFE0028F7D00146BDE81C
:1028100038400420FFF72AB8F191FF1FF491FF1F01
:10282000F091FF1F38B5224C237803B138BD012346
:102830002370FFF7C9FE70BB00F0B0F940BB00F099
:1028400043FA10BB00F0D6FAE0B900232370EFF38F
:102850000583002BEAD1EFF3108172B6154B18688F
:10286000E0B1154C2278CAB945691D600123237077
:10287000C5B1AA6101B962B600254577836898475A
:102880002570D3E700F018F9DFE700F013F9D9E776
:1028900000F00EF9D3E7FFF713FECDE70029C5D10D
:1028A00062B638BD054B1D600029E5D1E3E700BFE6
:1028B0000192FF1F1492FF1F1892FF1F1092FF1F1B
:1028C00010B4EFF3108272B6437F33B9017F012950
:1028D00007D003290FD00123437702B962B610BC99
:1028E0007047124C2168A1B1114943610B688361A3
:1028F00008605861EFE70F4C216881B10E494361D0
:102900000B688361086058610C4B4FF0805119606F
:10291000E1E7074B4161816120601860DBE7064B0E
:102920004161816120601860EEE700BF1492FF1FD3
:102930001092FF1F0492FF1F0892FF1F04ED00E09A
:1029400010B4047F4160022CC26002D010BCFFF7BB
:10295000B7BF836810BC184770B5EFF3108272B62A
:102960000C4C206880B10C4E00254369236073B184
:102970009D6102B962B6457783689847EFF310828C
:1029800072B620680028F0D102B962B670BD33601B
:10299000EFE700BF0492FF1F0892FF1FFFF7DCBFA5
:1029A000184A30B41468002C27D0036821688B4281
:1029B0000ED2CB1A00218460C1602360E0601060F9
:1029C0000223037530BC704711688B42144608D34C
:1029D000A2685B1A0360002AF6D18260C460A0601E
:1029E000EEE7D268C2608460E060C568CB1A02225C
:1029F000A8602360027530BC70478460C4601060BA
:102A0000DEE700BF0C92FF1FF8B5224E34682CB3EE
:102A10002368002B3AD1204F1D4604E03468ECB106
:102A20002368002B32D1A36803B1DD6020693360D5
:102A3000036825751B68BB4221D1037F4560022BCB
:102A4000C46020D0FFF73CFF6368002BE6D0236012
:102A50002046FFF7A5FF3468002CE1D1EFF3108387
:102A600072B60E4A00211068116003B962B628B12F
:102A70008468FFF795FF20460028F9D1F8BD22466B
:102A800000219847E0E783689847DDE7013B236032
:102A9000E4E700BF0C92FF1F412900001C92FF1FBA
:102AA000024A136801331360FFF7AEBF0491FF1FA2
:102AB000704700BF704700BF704700BF30B429485F
:102AC000294A2A4B2A4D6024E121047011701B7899
:102AD000284C082B30D00A2B2748284937D00C2BFC
:102AE0000CBF15223D2212232A60236002600B6076
:102AF000234B24491B78244ABBB101230B6013608C
:102B0000224B23491B78234A012B26D9042B0FD9AA
:102B1000082B1ED9102B94BF862387230B601360CC
:102B20001D4B01221A7030BC70470B601360E7E741
:102B300084230B601360F3E700F58E200F49083003
:102B4000012213232A60236002600B60D0E7192260
:102B5000F7E785230B601360E2E780230B601360C7
:102B6000DEE700BF00400740014007403887FF1FF5
:102B700008B003400CB0034008B00B400CB00B4051
:102B80002192FF1F20B0034020B00B403987FF1F68
:102B900024B0034024B00B402092FF1F054A064B8F
:102BA00010781B78C0B2DBB2984238BF4030C01AF0
:102BB000704700BF2892FF1F2992FF1FF0B4384BC7
:102BC0001A7912F0300F2CD072B6997D01F0FF0205
:102BD00000293DD062B6334F334938780D78334EF3
:102BE0001C46C0B2EDB2431C402BE17928BF002344
:102BF000AB4202F1FF32C9B21CBFF154184612F0C9
:102C0000FF02F0D12A4B1B68C2B23A704BB1A84206
:102C100036BFC5F14005401B40192728C4BF01221B
:102C20001A701F49CA78D2B2150616D452060DD5AD
:102C30001B4B1B795B0609D51E4B1F491B680022E5
:102C40000A7003B11A70164B3C22DA70F0BC704760
:102C50004022D9795A7462B6E3E70B791C06E5D5B0
:102C6000164B174E1C783378E4B2DBB29C420ED080
:102C7000144D01E0A3420AD00133402B28BF0023AA
:102C80000879E85CC0B2C871087D0728F2D9DBB2C8
:102C9000034933700B79180644BF7C23CB70C5E71A
:102CA00000A006402892FF1F2992FF1F6C92FF1F71
:102CB0002492FF1FB092FF1FAC92FF1FB492FF1F20
:102CC000AD92FF1F2C92FF1F054A064B10781B7810
:102CD000C0B2DBB2984238BF4030C01A704700BF64
:102CE0002893FF1FBD92FF1FF0B4384B1A7912F0E2
:102CF000300F2CD072B6997D01F0FF0200293DD033
:102D000062B6334F334938780D78334E1C46C0B223
:102D1000EDB2431C402BE17928BF0023AB4202F106
:102D2000FF32C9B21CBFF154184612F0FF02F0D1B5
:102D30002A4B1B68C2B23A704BB1A84236BFC5F1EC
:102D40004005401B40192728C4BF01221A701F49A3
:102D5000CA78D2B2150616D452060DD51B4B1B7974
:102D60005B0609D51E4B1F491B6800220A7003B180
:102D70001A70164B3C22DA70F0BC70474022D979A9
:102D80005A7462B6E3E70B791C06E5D5164B174E6D
:102D90001C783378E4B2DBB29C420ED0144D01E0D3
:102DA000A3420AD00133282B28BF00230879E85C0E
:102DB000C0B2C871087D0728F2D9DBB2034933706D
:102DC0000B79180644BF7C23CB70C5E700B00640E2
:102DD0002893FF1FBD92FF1FE892FF1FB892FF1FAD
:102DE0002C93FF1FBC92FF1F3093FF1F2993FF1FDF
:102DF000C092FF1F054A064B10781B78C0B2DBB2A9
:102E0000984238BF4030C01A704700BF3893FF1F48
:102E10003993FF1F30B42B4B1A7994061FD52A48DB
:102E2000DA790378294901333F2B0978C8BF002399
:102E30008B42D2B203D0264CD9B2E2540170254A5B
:102E4000116861B1244A1278D2B2934236BFC2F1FE
:102E500040029B1A9B18272BC4BF01230B70194AF1
:102E6000D378DBB2180611D45A060DD5154B1B7951
:102E70005B0609D5194B1A491B6800220A7003B179
:102E80001A70104B2C22DA7030BC70471179090689
:102E9000EAD5144910480C780178C9B28C420DD09B
:102EA0004A1C272A84BF00210A460F4D054C98BFB3
:102EB000D1B2AA5CD2B2E2710170D5E76C21D170B7
:102EC000D2E700BF00C006403893FF1F3993FF1FB1
:102ED0006493FF1F3493FF1FA593FF1FA893FF1F49
:102EE000A493FF1FAC93FF1F3C93FF1F70B584B0EA
:102EF00072B6194B194D1A48702241260F248021B1
:102F00001A702E701A460470197013781B06FCD5BF
:102F1000144B186862B6144B144C984298BF00EBDF
:102F2000800001A998BF40000A22FEF7A5FA01A976
:102F30002046002311F8012B01333AB10A2B20F867
:102F4000022FF7D11623237004B070BD5B00DBB2F3
:102F5000237004B070BD00BF0000024007000240B3
:102F600006000240080002407F969800C887FF1FB5
:102F70002DE9F04FDFF8E4928DB006460F46144677
:102F80001D4600F06DF999F90080B8F1FF3FCDE9D9
:102F9000000146D022462B462046294601F0F0FC8F
:102FA000834600283DD132463B463046394601F043
:102FB000E7FC002282460023002840F0848030464F
:102FC000394601F0ABFC002830D000220023204617
:102FD000294601F0A3FC8346A8B10122984B029236
:102FE00000210022CDF828A0CDE90467CDE90645EF
:102FF000CDE908120393B8F1000F53D09149002096
:103000000DB0BDE8F08F2046294600F047FF40B1E3
:10301000002200232046294601F08AFC002840F0C7
:10302000B780DDE900010DB0BDE8F08FDDE90001FA
:1030300000F034FF804600285DD04FF0000A4FF0CA
:10304000000B52465B46DDE9000101F067FC0028F9
:10305000E7D03046394600F021FF0028E1D0204675
:10306000294600F01BFF0028DBD099F90030744A94
:10307000039204210022022BCDE90467CDE9064525
:10308000CDE908AB02910A9203D002A800F00CFF30
:1030900070B901F0CFFF2223036009E00023002470
:1030A000CDE9083402A800F0FFFE002800F0868079
:1030B0000A9B1BB101F0BEFF0A9B0360DDE908011A
:1030C0000DB0BDE8F08F2046294601F027FC00280E
:1030D000A7D05C495A4BCDF828B001220020B8F1A6
:1030E000020FCDE90467CDE9064502920393CDE9CD
:1030F0000801D7D197E73046394600F0CFFE0028C7
:103100009BD02046294600F0C9FE002895D0DDE975
:1031100000231046194601F033FC002873D1032325
:1031200099F900800293464B0A900393CDE9046716
:10313000CDE906450022002330463946B8F1000F9C
:1031400041D1414F4FF06046CDE9086701F0F0FBF7
:1031500000289AD000223D4B2046294601F076F9FE
:1031600004460D4600F0A8FE02460B4620462946BE
:1031700001F0D4FB002843D1354B99F900804FF082
:103180006042CDE90823B8F1020F7FF47EAF80E7FB
:1031900099F900302A4ACDF828B00121CDE9046719
:1031A000CDE9064502910392002B3FF477AF294900
:1031B0000020022BCDE908017FF474AF01F03AFF43
:1031C0002123036074E7244F0026CDE9086701F04E
:1031D000AFFB0028D7D000221C4B2046294601F027
:1031E00035F904460D4600F067FE02460B462046C0
:1031F000294601F093FB18B9164B0022CDE90823AC
:1032000099F90080BFE799F900900D4BCDF828801F
:103210000122CDE90467CDE9064502920393B9F195
:10322000000F3FF43BAF002200231046194601F087
:1032300037FAB9F1020FCDE90801BFD032E700BF7C
:10324000D85C00000000F03FFFFFEF470000E03FC8
:10325000FFFFEFC70000F0FF0000F07FDE87FF1FD9
:103260002DE9F04F23F0004858EA020993B03CD012
:10327000714C21F00046A64283460D460CDD06F156
:10328000404606F5801656EA0B0038D16B49834656
:10329000584613B0BDE8F08F9A4696462BD0A0450D
:1032A000EDDC654CA04578D0002D0F468146CDE978
:1032B000002376DB0024BEF1000F27D15E4B98453A
:1032C00000F08B805D4B984552D0BAF1804F00F0F2
:1032D000C2835B4B9A4519D1002D17DB484639460E
:1032E00013B0BDE8F04F00F015BDCB46534958462A
:1032F00013B0BDE8F08F0028C1D1B045D1DD5148F1
:1033000013B0BDE8F04F00F0D1BD00244846394667
:1033100000F0C0FDBBF1000F1CD0ED0F013D54EAE1
:10332000050370D0484B984540F3948003F1047333
:10333000984540F30584454B9E4270DDBAF1000F7D
:1033400070DD3BA3D3E900231046194601F07EF857
:1033500083469DE726B1394B25F040429A42DCD1A5
:10336000BAF1000FC0F2B083002D08DB83468FE76F
:10337000BAF1000FC0F25684CB46394688E706F111
:10338000404606F5801656EA040300F07B84012CC3
:10339000ECD1834601F100417AE7BEF1000F83D002
:1033A0006DE72B4B98452CDCA3F15473984581DDD8
:1033B0004FEA2853A3F2FF33142B40F34B84C3F19D
:1033C00034032EFA03F202FA03F39E457FF472AF40
:1033D00002F00102C2F102046DE706F1404303F579
:1033E000801353EA0B0300F03383184B9E4240F3E3
:1033F0006083BAF1000F15DBDDE900349B462146FE
:1034000046E7022457E74A4648463B46394600F01D
:1034100069FE02460B4601F043F9834638E7BAF1EC
:10342000000F8EDB4FF0000B594631E7AFF3008001
:103430009C7500883CE4377E0000F07F0000F03F80
:103440000000E03F0C5A00000000E041FFFFEF3FAA
:10345000FFFF3F43B6F5801F4FF0000205DAD44B63
:1034600000F0F4FF6FF034020E463315D14FC6F36F
:103470001306A3F2FF33134446F07F5ABE421A46A6
:103480000D934AF4401A40F3C183CB4B9E4240F364
:10349000FD83134601330D93C84B0022CDE906236B
:1034A00000270026CDE90867CDE90E67AAF5801A46
:1034B0000027024653465146CDE90A23DDE906239B
:1034C00000F010FEDDE9062380468946DDE90A01A9
:1034D00000F00AFE02460B460020B84901F0E0F871
:1034E0000A460146CDE910121346494602464046B7
:1034F00000F0ACFF4FEA6A0343F000538C4683466A
:1035000003F50023CDE904BCDA468B46D919002324
:10351000CDE902AB0293DDE902AB002006460F467F
:1035200002460B465046594600F090FF02460B46B5
:103530004046494600F0D6FDDDE90623804689462F
:103540003046394600F0CEFD02460B46DDE90A0161
:1035500000F0C8FD52465B4600F078FF02460B467D
:103560004046494600F0BEFDDDE9102300F06EFF45
:10357000DDE90467CDE9060132463B46304639466F
:1035800000F064FF78A3D3E9002306460F4600F05D
:103590005DFF77A3D3E9002300F0A6FD32463B464A
:1035A00000F054FF74A3D3E9002300F09DFD3246E0
:1035B0003B4600F04BFF72A3D3E9002300F094FDDB
:1035C00032463B4600F042FF6FA3D3E9002300F0F0
:1035D0008BFD32463B4600F039FF6DA3D3E9002353
:1035E00000F082FD3246804689463B4630463946E9
:1035F00000F02CFF02460B464046494600F026FFED
:10360000524606460F465B46DDE9040100F06CFDBC
:10361000DDE9062300F01AFF32463B4600F064FD68
:103620005246804689465B465046594600F00EFF9A
:103630000022634BCDE90A0100F056FD42464B469D
:1036400000F052FD02980F46064632463B46504671
:10365000594600F0FBFE002282468B46584B30460E
:10366000394600F03FFDDDE90A2300F03BFD02464C
:103670000B464046494600F035FDDDE9042300F0E5
:10368000E5FE3246804689463B46DDE9060100F00C
:10369000DDFE02460B464046494600F025FD8046C9
:1036A000894602460B4650465946CDE904AB00F028
:1036B0001BFDDDE902AB38A3D3E9002350460F46DA
:1036C00000F0C4FEDDE90423CDE90201394650468D
:1036D00000F008FD02460B464046494600F002FD58
:1036E0002FA3D3E9002300F0B1FE2FA3D3E90023D9
:1036F000804689465046394600F0A8FE02460B46F1
:103700004046494600F0F0FCDDE90E2300F0ECFCF9
:1037100080460D98894600F033FE424606460F4625
:103720004B46DDE9020100F0DFFCDDE9082300F093
:10373000DBFC32463B4600F0D7FC32463B46504667
:103740008B4600F0CFFCDDE9082300F0CBFCDDE97F
:10375000022300F0C7FC02460B464046494600F0F3
:10376000C1FC80462EE000BFEF4E454A287ECA3F8E
:1037700065DBC9934A86CD3F01411DA96074D13FE5
:103780004D268F515555D53FFFAB6FDBB66DDB3FF7
:10379000033333333333E33F000000E009C7EE3F28
:1037A000FD033ADC09C7EE3FF5015B14E02F3EBE96
:1037B000000040438E98030079B60B000000F03FF4
:1037C000000008408946013C54EA0503DDE9000198
:1037D00014BFD54CD54C0023CDE9043403460C4628
:1037E000CDE9023400230293DDE9024522462B464F
:1037F00000F078FC52465B4600F028FEDDE900232D
:1038000006460F464046494600F020FE02460B465B
:103810003046394600F068FC224606460F462B46E5
:1038200050465946CDE9006700F010FE0B460246AF
:10383000804689463046394600F056FCBC4B9942DA
:1038400006460D460C4640F30E8101F13F4303F559
:10385000E003034340F0EF819FA3D3E90023DDE9B8
:10386000000100F041FC424682468B464B46304602
:10387000294600F037FC02460B465046594601F0F7
:1038800075F8002840F0D7812F463B154FF4801281
:10389000A3F2FE3342FA03F32344C3F30A52A54EC4
:1038A000A2F2FF321641C3F3130B0020C2F114053C
:1038B00023EA06014BF4801B02460B46002C4BFA10
:1038C00005FB40464946B8BFCBF1000B00F00AFCAF
:1038D00002460B4680468946DDE9000100F004FC03
:1038E0004FEA0B5A00247EA3D3E9002320460D465D
:1038F00000F0ACFD424606460F464B4620462946A0
:1039000000F0F0FB02460B46DDE9000100F0EAFBA7
:1039100075A3D3E9002300F099FD75A3D3E9002333
:10392000804689462046294600F090FD02460B4617
:103930004046494600F0D8FB8046894602460B4681
:103940003046394600F0D0FB32463B4604460D4631
:1039500000F0C8FB02460B464046494600F0C2FB59
:103960002246804689462B462046294600F06EFDB9
:1039700061A3D3E9002306460F4600F067FD60A36C
:10398000D3E9002300F0AEFB32463B4600F05EFD7B
:103990005DA3D3E9002300F0A7FB32463B4600F0CD
:1039A00055FD5BA3D3E9002300F09CFB32463B4668
:1039B00000F04CFD58A3D3E9002300F095FB3246FC
:1039C0003B4600F043FD02460B462046294600F0E8
:1039D00089FB06460F4602460B462046294600F064
:1039E00035FD0022CDE900014FF0804330463946D5
:1039F00000F078FB02460B46DDE9000100F050FEC6
:103A0000424606460F464B462046294600F01EFD1C
:103A100042464B4600F068FB02460B4630463946AC
:103A200000F060FB22462B4600F05CFB02460B4692
:103A300000203D4900F056FB8A44BAF5801FC0F2D1
:103A400036815146DDE9042300F000FD83461FE482
:103A5000F34635491CE44A4648463B46394600F0A1
:103A6000F5FC834614E4344B21F000479F4240F3B9
:103A70000081324B0B4403430CD142464B4600F0CD
:103A800031FB02460B46DDE9000100F05BFF002838
:103A90003FF4FBAE22A3D3E90023DDE9040100F0EB
:103AA000D5FC1FA3D3E9002300F0D0FC8346FFF729
:103AB000EFBBBAF1000FBFF6B5ACDDE900349B46B1
:103AC00004F10041FFF7E4BB02460B460020164913
:103AD00000F0E6FD48E400BFFE822B654715973CE9
:103AE00000000000432EE63FEF39FAFE422EE63F8B
:103AF000396CA80C615C20BED0A4BE726937663EEA
:103B0000F16BD2C541BDBB3E2CDE25AF6A56113FDD
:103B100093BDBE166CC1663F3E5555555555C53FC4
:103B200059F3F8C21F6EA5010000F03F0000F0BF7E
:103B3000FFFF8F40FFFF0F00FFCB904000346F3F2F
:103B40006F4B9E427FF76BAC6E4B9E423FF7F6ABDE
:103B500000226C4B00F0C6FA5BA3D3E900230646B3
:103B60000F4600F073FC5AA3D3E900238046894630
:103B70003046394600F06AFC002282468B46624B92
:103B80003046394600F062FC02460B4652A1D1E9AC
:103B9000000100F0A7FA32463B4600F057FC02460F
:103BA0000B460020594900F09DFA3246CDE902014A
:103BB0003B463046394600F049FC02460B46DDE9FB
:103BC000020100F043FC46A3D3E9002300F03EFCD1
:103BD00002460B465046594600F084FA02460B4610
:103BE00006460F464046494600F07EFA42464B469E
:103BF000002082468B4600F075FA02460B4630469E
:103C0000394600F06FFA80468946DCE50022002341
:103C1000CDE90823CDE90E233A4B00220027CDE958
:103C2000062346E44A463B460020364900F038FD6C
:103C30008346FFF72DBB2CA3D3E90023DDE9040164
:103C400000F004FC28A3D3E9002300F0FFFB834627
:103C5000FFF71EBBBEF1000F7FF457ABC3F1140397
:103C600048FA03F202FA03F3984524D07446FFF7AA
:103C700029BB264B9F423FF708AEDDE902349A4646
:103C80009B462FE602460B46FFF7C1BB18A3D3E9BC
:103C90000023CDE9082318A3D3E90023CDE90E239F
:103CA0001B4B00224FF48027CDE9062301E45A463E
:103CB00000F08EF9C6E602F00102C2F10204FFF73D
:103CC00001BB00BFAFF30080000000604715F73F65
:103CD00044DF5DF80BAE543E555555555555D53F0F
:103CE000FE822B654715F73F9C7500883CE4377EC4
:103CF0000000004003B8E23F06D0CF43EBFD4C3E4E
:103D0000FEFFEF3F0000F03F0000D03F0000E03F2B
:103D10000000F83F2DE9F8435D4EB6460E4076456B
:103D20000C46054600F0958000290B46024673DDDF
:103D30000F157ED0A7F2FF37C3F31303F80743F440
:103D4000801364D403EBD27100260B447F10520021
:103D5000B64616204FF400110EEB01049C424FEAC8
:103D6000D2754FEA420203DC1B1B04EB010E0E442A
:103D7000013805EB43034FEA5101EDD1844620247D
:103D80004FF0004109E020D003EBD275013C4FEA2F
:103D900051012B444FEA420220D09E4501EB0C0515
:103DA000F1DA002D05EB010C09DBF0469542CEEB74
:103DB000030300D9013B521B0844C646E4E7BCF1AB
:103DC000000FF2DB0EF10108F0E7954217D8002D45
:103DD00005EB010C47DB98460023ECE7134310D1B9
:103DE0004008731003F17F5303F50013F20703EB50
:103DF000075948BF40F000404946BDE8F883734684
:103E0000C2E7411C33D000F001031844E8E75B002F
:103E100003EBD273520095E721F000460643ECD045
:103E200069BB0F46D30A153F5205002BFAD0DD02BD
:103E300020D4002100E001465B00DC0201F101001A
:103E4000F9D5C0F1200422FA04F423437F1A8240FA
:103E500070E702460B4600F0F9FA2A46234600F0C6
:103E600043F9BDE8F883BCF1000FABDAB3E70136E4
:103E70002046B6E720244FF0FF310020E3E702465A
:103E80000B4600F02FF902460B4600F009FCB4E7A0
:103E90000000F07F21F00041704700BF41F0004179
:103EA00001F58010C00F70470020704700200149C5
:103EB000704700BF0000F87FF0B5C1F30A5EAEF2B4
:103EC000FF36132E83B002460B460C464FEAD175DF
:103ED00007462EDC002E49DB3B49314103EA010055
:103EE00010432BD049080B4053EA02070CD04FF483
:103EF0008023132E24EA010143FA06F444EA010464
:103F00000CBF4FF000470027304B03EBC50521469F
:103F1000D5E90045384622462B4600F0E5F8CDE9C4
:103F2000000122462B46DDE9000100F0DBF803B07A
:103F3000F0BD332E06DDB6F5806F42D0104619462F
:103F400003B0F0BDAEF2134E4FF0FF3121FA0EF187
:103F50000842F3D049080842D6D04FF0804320EA07
:103F6000010143FA0EFE4EEA0107CDE721F00041C0
:103F70000143E3D0C3F31301144E41EA000CCCF12A
:103F8000000106EBC506D6E9006741EA0C0C5C0CA3
:103F90004FEA1C3C0CF4002C64044CEA0401324649
:103FA0003B4600F0A1F8CDE900013B463246DDE991
:103FB000000100F097F821F0004444EAC573194667
:103FC000BEE700F091F8BBE7FFFF0F00E05C0000E8
:103FD000F8B5C1F30A5604460D460B46174606BB14
:103FE00021F00043034325D00022354B00F02EFA88
:103FF000344A974204460D460B462ADBC1F30A5663
:10400000363E3E4440F2FE72964228DC002E12DD1F
:1040100023F0FF4323F4E00343EA065520462946F4
:10402000F8BD40F2FF729642EBD102460B4600F01B
:104030005BF8F8BDF8BD16F1350F1DDA4CF25033C0
:104040009F4222462B4625DC19A1D1E9000100F050
:104050003DF817A3D3E9002300F0F8F9F8BD224694
:104060002B4615A1D1E9000100F030F812A3D3E9E5
:10407000002300F0EBF9F8BD23F0FF4323F4E00345
:10408000363643EA06552046294600220E4B00F0FC
:10409000DDF9F8BD08A1D1E9000100F017F806A389
:1040A000D3E9002300F0D2F9F8BD00BFAFF30080E0
:1040B00059F3F8C21F6EA5019C7500883CE4377E59
:1040C00000005043B03CFFFF0000903C03F0004371
:1040D00021F0004242EA0301704700BF81F0004135
:1040E00002E000BF83F0004330B54FEA41044FEADD
:1040F000430594EA050F08BF90EA020F1FBF54EA78
:10410000000C55EA020C7FEA645C7FEA655C00F013
:10411000E2804FEA5454D4EB5555B8BF6D420CDDE4
:104120002C4480EA020281EA030382EA000083EA67
:10413000010180EA020281EA0303362D88BF30BD07
:1041400011F0004F4FEA01314FF4801C4CEA11315D
:1041500002D0404261EB410113F0004F4FEA0333BC
:104160004CEA133302D0524263EB430394EA050F47
:1041700000F0A780A4F10104D5F1200E0DDB02FAB6
:104180000EFC22FA05F2801841F1000103FA0EF24A
:10419000801843FA05F359410EE0A5F120050EF110
:1041A000200E012A03FA0EFC28BF4CF0020C43FA41
:1041B00005F3C01851EBE37101F0004507D54FF04E
:1041C000000EDCF1000C7EEB00006EEB0101B1F59E
:1041D000801F1BD3B1F5001F0CD349085FEA3000E4
:1041E0004FEA3C0C04F101044FEA445212F5800FEF
:1041F00080F09A80BCF1004F08BF5FEA500C50F18C
:10420000000041EB045141EA050130BD5FEA4C0C6E
:10421000404141EB010111F4801FA4F10104E9D1F7
:1042200091F0000F04BF01460020B1FA81F308BFEE
:104230002033A3F10B03B3F120020CDA0C3208DDBA
:1042400002F1140CC2F10C0201FA0CF021FA02F195
:104250000CE002F11402D8BFC2F1200C01FA02F105
:1042600020FA0CFCDCBF41EA0C019040E41AA2BF2A
:1042700001EB0451294330BD6FEA04041F3C1CDAF2
:104280000C340EDC04F11404C4F1200220FA04F012
:1042900001FA02F340EA030021FA04F345EA0301BC
:1042A00030BDC4F10C04C4F1200220FA02F001FA7E
:1042B00004F340EA0300294630BD21FA04F0294600
:1042C00030BD94F0000F83F4801306BF81F4801199
:1042D0000134013D4EE77FEA645C18BF7FEA655C0C
:1042E00029D094EA050F08BF90EA020F05D054EADE
:1042F000000C04BF1946104630BD91EA030F1EBFE3
:104300000021002030BD5FEA545C05D140004941E6
:1043100028BF41F0004130BD14F580043CBF01F5D9
:10432000801130BD01F0004545F0FE4141F47001BF
:104330004FF0000030BD7FEA645C1ABF194610469A
:104340007FEA655C1CBF0B46024650EA013406BF9B
:1043500052EA033591EA030F41F4002130BD00BF5A
:1043600090F0000F04BF0021704730B54FF4806417
:1043700004F132044FF000054FF0000150E700BF98
:1043800090F0000F04BF0021704730B54FF48064F7
:1043900004F1320410F0004548BF40424FF00001E4
:1043A0003EE700BF42004FEAE2014FEA31014FEA27
:1043B00002701FBF12F07F4393F07F4F81F0605176
:1043C000704792F0000F14BF93F07F4F704730B5E5
:1043D0004FF4607401F0004521F0004120E700BF78
:1043E00050EA010208BF704730B54FF000050AE0FF
:1043F00050EA010208BF704730B511F0004502D500
:10440000404261EB41014FF4806404F132045FEA01
:10441000915C3FF4DCAE4FF003025FEADC0C18BFA6
:1044200003325FEADC0C18BF033202EBDC02C2F19C
:10443000200300FA03FC20FA02F001FA03FE40EA2E
:104440000E0021FA02F11444C1E600BF70B54FF02E
:10445000FF0C4CF4E06C1CEA11541DBF1CEA135510
:1044600094EA0C0F95EA0C0F00F0DEF82C4481EA78
:10447000030621EA4C5123EA4C5350EA013518BF98
:1044800052EA033541F4801143F4801338D0A0FB85
:1044900002CE4FF00005E1FB02E506F00042E0FB32
:1044A00003E54FF00006E1FB03569CF0000F18BF38
:1044B0004EF0010EA4F1FF04B6F5007F64F54074E0
:1044C00004D25FEA4E0E6D4146EB060642EAC62173
:1044D00041EA55514FEAC52040EA5E504FEACE2EE0
:1044E000B4F1FD0C88BFBCF5E06F1ED8BEF1004FE3
:1044F00008BF5FEA500E50F1000041EB045170BD5F
:1045000006F0004646EA010140EA020081EA0301A2
:10451000B4EB5C04C2BFD4EB0C0541EA045170BD9E
:1045200041F480114FF0000E013C00F3AB8014F118
:10453000360FDEBF002001F0004170BDC4F1000461
:10454000203C35DA0C341BDC04F11404C4F12005E2
:1045500000FA05F320FA04F001FA05F240EA02003D
:1045600001F0004221F0004110EBD37021FA04F673
:1045700042EB06015EEA430E08BF20EAD37070BD2D
:10458000C4F10C04C4F1200500FA04F320FA05F08C
:1045900001FA04F240EA020001F0004110EBD3708E
:1045A00041F100015EEA430E08BF20EAD37070BDFE
:1045B000C4F1200500FA05F24EEA020E20FA04F3D7
:1045C00001FA05F243EA020321FA04F001F0004186
:1045D00021FA04F220EA020000EBD3705EEA430EF7
:1045E00008BF20EAD37070BD94F0000F0FD101F026
:1045F0000046400041EB010111F4801F08BF013C5F
:10460000F7D041EA060195F0000F18BF704703F09C
:104610000046520043EB030313F4801F08BF013D23
:10462000F7D043EA0603704794EA0C0F0CEA1355DF
:1046300018BF95EA0C0F0CD050EA410618BF52EA99
:104640004306D1D181EA030101F000414FF000009F
:1046500070BD50EA410606BF1046194652EA4306AD
:1046600019D094EA0C0F02D150EA013613D195EA21
:104670000C0F05D152EA03361CBF104619460AD169
:1046800081EA030101F0004141F0FE4141F4700173
:104690004FF0000070BD41F0FE4141F4780170BD63
:1046A00070B54FF0FF0C4CF4E06C1CEA11541DBFC8
:1046B0001CEA135594EA0C0F95EA0C0F00F0A7F8CA
:1046C000A4EB050481EA030E52EA03354FEA0131F7
:1046D00000F088804FEA03334FF0805545EA13130A
:1046E00043EA12634FEA022245EA111545EA1065D2
:1046F0004FEA00260EF000419D4208BF964244F169
:10470000FD0404F5407402D25B084FEA3202B61A87
:1047100065EB03055B084FEA32024FF480104FF45B
:10472000002CB6EB020E75EB030E22BFB61A7546CF
:1047300040EA0C005B084FEA3202B6EB020E75EB62
:10474000030E22BFB61A754640EA5C005B084FEACA
:104750003202B6EB020E75EB030E22BFB61A754697
:1047600040EA9C005B084FEA3202B6EB020E75EBA2
:10477000030E22BFB61A754640EADC0055EA060E63
:1047800018D04FEA051545EA16754FEA06164FEAA6
:10479000C30343EA52734FEAC2025FEA1C1CC0D152
:1047A00011F4801F0BD141EA00014FF000004FF0DF
:1047B000004CB6E711F4801F04BF01430020B4F1A0
:1047C000FD0C88BFBCF5E06F3FF6AFAEB5EB030C58
:1047D00004BFB6EB020C5FEA500C50F1000041EB55
:1047E000045170BD0EF0004E4EEA113114EB5C0422
:1047F000C2BFD4EB0C0541EA045170BD41F48011F5
:104800004FF0000E013C90E645EA060E8DE60CEAFC
:10481000135594EA0C0F08BF95EA0C0F3FF43BAF19
:1048200094EA0C0F0AD150EA01347FF434AF95EAD0
:104830000C0F7FF425AF104619462CE795EA0C0FB4
:1048400006D152EA03353FF4FDAE1046194622E781
:1048500050EA410618BF52EA43067FF4C5AE50EA5B
:1048600041047FF40DAF52EA43057FF4EBAE12E74B
:104870004FF0FF3C06E000BF4FF0010C02E000BF2C
:104880004FF0010C4DF804CD4FEA410C7FEA6C5C0F
:104890004FEA430C18BF7FEA6C5C1BD001B050EAB2
:1048A000410C0CBF52EA430C91EA030F02BF90EA9D
:1048B000020F0020704710F1000F91EA030F58BF5C
:1048C000994208BF90422CBFD8176FEAE37040F0BE
:1048D000010070474FEA410C7FEA6C5C02D150EA5C
:1048E000013C07D14FEA430C7FEA6C5CD6D152EA17
:1048F000033CD3D05DF8040B704700BF84461046DC
:1049000062468C461946634600E000BF01B5FFF7DA
:10491000B7FF002848BF10F1000F01BD4DF808EDAA
:10492000FFF7F4FF0CBF012000205DF808FB00BF7B
:104930004DF808EDFFF7EAFF34BF012000205DF8D5
:1049400008FB00BF4DF808EDFFF7E0FF94BF012022
:1049500000205DF808FB00BF4DF808EDFFF7CEFF23
:1049600094BF012000205DF808FB00BF4DF808ED62
:10497000FFF7C4FF34BF012000205DF808FB00BF33
:104980004FEA410C7FEA6C5C02D150EA013C0AD14B
:104990004FEA430C7FEA6C5C02D152EA033C02D13D
:1049A0004FF0000070474FF0010070474A0011D2ED
:1049B00012F5001211D20DD56FF47873B3EB625279
:1049C0000ED44FEAC12343F0004343EA505323FA85
:1049D00002F070474FF00000704750EA013002D1FA
:1049E0004FF0FF3070474FF0000070474FEA410230
:1049F000B2F1E04324BFB3F5001CDCF1FE5C0DD93D
:104A000001F0004C4FEAC0024CEA5070B2F1004F86
:104A100040EB830008BF20F00100704711F0804F89
:104A200021D113F13872BCBF01F00040704741F44E
:104A300080114FEA5252C2F11802C2F1200C10FA52
:104A40000CF320FA02F018BF40F001004FEAC12336
:104A50004FEAD32303FA0CFC40EA0C0023FA02F3DA
:104A60004FEA4303CCE77FEA625307D150EA0133B0
:104A70001EBF4FF0FE4040F44000704701F0004080
:104A800040F0FE4040F40000704700BF80F000405E
:104A900002E000BF81F0004142001FBF5FEA410316
:104AA00092EA030F7FEA226C7FEA236C6AD04FEA16
:104AB0001262D2EB1363C1BFD2184140484041405B
:104AC000B8BF5B42192B88BF704710F0004F40F40D
:104AD000000020F07F4018BF404211F0004F41F429
:104AE000000121F07F4118BF494292EA030F3FD0F5
:104AF000A2F1010241FA03FC10EB0C00C3F1200308
:104B000001FA03F100F0004302D5494260EB400096
:104B1000B0F5000F13D3B0F1807F06D340084FEA01
:104B2000310102F10102FE2A51D2B1F1004F40EBF6
:104B3000C25008BF20F0010040EA0300704749005E
:104B400040EB000010F4000FA2F10102EDD1B0FA29
:104B500080FCACF1080CB2EB0C0200FA0CF0AABF1E
:104B600000EBC25052421843BCBFD04018437047BC
:104B700092F0000F81F4000106BF80F400000132C2
:104B8000013BB5E74FEA41037FEA226C18BF7FEA99
:104B9000236C21D092EA030F04D092F0000F08BFDB
:104BA0000846704790EA010F1CBF0020704712F0C2
:104BB0007F4F04D1400028BF40F00040704712F101
:104BC00000723CBF00F50000704700F0004343F066
:104BD000FE4040F4000070477FEA226216BF08469C
:104BE0007FEA23630146420206BF5FEA412390EA5F
:104BF000010F40F4800070474FF0000304E000BF55
:104C000010F0004348BF40425FEA000C08BF704705
:104C100043F0964301464FF000001CE050EA0102C9
:104C200008BF70474FF000030AE000BF50EA0102DE
:104C300008BF704711F0004302D5404261EB4101CB
:104C40005FEA010C02BF84460146002043F0B643F0
:104C500008BFA3F18053A3F50003BCFA8CF2083A15
:104C6000A3EBC25310DB01FA02FC634400FA02FC1E
:104C7000C2F12002BCF1004F20FA02F243EB020025
:104C800008BF20F00100704702F1200201FA02FC87
:104C9000C2F1200250EA4C0021FA02F243EB02007A
:104CA00008BF20EADC7070474FF0FF0C1CEAD052BE
:104CB0001EBF1CEAD15392EA0C0F93EA0C0F6FD07F
:104CC0001A4480EA010C400218BF5FEA41211ED05D
:104CD0004FF0006343EA501043EA5111A0FB013149
:104CE0000CF00040B1F5000F3EBF490041EAD3711E
:104CF0005B0040EA010062F17F02FD2A1DD8B3F19A
:104D0000004F40EBC25008BF20F00100704790F008
:104D1000000F0CF0004C08BF49024CEA502040EA5A
:104D200051207F3AC2BFD2F1FF0340EAC250704720
:104D300040F400004FF00003013A5DDC12F1190F5E
:104D4000DCBF00F000407047C2F10002410021FAD0
:104D500002F1C2F1200200FA02FC5FEA310040F1E8
:104D6000000053EA4C0308BF20EADC70704792F061
:104D7000000F00F0004C02BF400010F4000F013A99
:104D8000F9D040EA0C0093F0000F01F0004C02BF94
:104D9000490011F4000F013BF9D041EA0C018FE703
:104DA0000CEAD15392EA0C0F18BF93EA0C0F0AD009
:104DB00030F0004C18BF31F0004CD8D180EA01002F
:104DC00000F00040704790F0000F17BF90F0004FC8
:104DD000084691F0000F91F0004F14D092EA0C0FAA
:104DE00001D142020FD193EA0C0F03D14B0218BF3D
:104DF000084608D180EA010000F0004040F0FE4083
:104E000040F40000704740F0FE4040F4400070471E
:104E10004FF0FF0C1CEAD0521EBF1CEAD15392EA9D
:104E20000C0F93EA0C0F69D0A2EB030280EA010C8D
:104E300049024FEA402037D04FF0805343EA111126
:104E400043EA10130CF000408B4238BF5B0042F184
:104E50007D024FF4000C8B4224BF5B1A40EA0C0029
:104E6000B3EB510F24BFA3EB510340EA5C00B3EB5B
:104E7000910F24BFA3EB910340EA9C00B3EBD10F49
:104E800024BFA3EBD10340EADC001B0118BF5FEA9B
:104E90001C1CE0D1FD2A3FF650AF8B4240EBC250C4
:104EA00008BF20F0010070470CF0004C4CEA502085
:104EB0007F32C2BFD2F1FF0340EAC250704740F4D4
:104EC00000004FF00003013A37E792F0000F00F0C6
:104ED000004C02BF400010F4000F013AF9D040EA44
:104EE0000C0093F0000F01F0004C02BF490011F4D8
:104EF000000F013BF9D041EA0C0195E70CEAD153D0
:104F000092EA0C0F08D142027FF47DAF93EA0C0FB6
:104F10007FF470AF084676E793EA0C0F04D14B029A
:104F20003FF44CAF08466EE730F0004C18BF31F04C
:104F3000004CCAD130F000427FF45CAF31F0004346
:104F40007FF43CAF5FE700BF4FF0FF3C06E000BFDF
:104F50004FF0010C02E000BF4FF0010C4DF804CD02
:104F60004FEA40024FEA41037FEA226C18BF7FEA12
:104F7000236C11D001B052EA530C18BF90EA010F14
:104F800058BFB2EB030088BFC81738BF6FEAE170A3
:104F900018BF40F0010070477FEA226C02D15FEA3F
:104FA000402C05D17FEA236CE4D15FEA412CE1D0AB
:104FB0005DF8040B704700BF844608466146FFE772
:104FC0000FB5FFF7C9FF002848BF10F1000F0FBD54
:104FD0004DF808EDFFF7F4FF0CBF012000205DF84D
:104FE00008FB00BF4DF808EDFFF7EAFF34BF0120D2
:104FF00000205DF808FB00BF4DF808EDFFF7E0FF6B
:1050000094BF012000205DF808FB00BF4DF808EDBB
:10501000FFF7D2FF94BF012000205DF808FB00BF1E
:105020004DF808EDFFF7C8FF34BF012000205DF800
:1050300008FB00BF014B1868704700BF088CFF1FBA
:1050400070B50F4E0F4D761BB61018BF002405D05B
:10505000013455F8043B9847A642F9D10A4E0B4D4E
:10506000761B00F047FEB61018BF002406D00134AE
:1050700055F8043B9847A642F9D170BD70BD00BFFA
:10508000005D0000005D00000C5D0000005D0000A0
:10509000024B0146186800F003B800BF088CFF1FE0
:1050A0002DE9F04F01F10B05162D83B0064640F2B5
:1050B0009F8035F0070500F1BF80A94200F2BC8057
:1050C00000F0A6FAB5F5FC7FC0F09C826B0A00F0F8
:1050D000BA80042B00F28381A80900F1390E4FEA4F
:1050E0004E033830C44F07EB8303A3F108015C681B
:1050F000A14207D1ACE0002A80F2AC80E468A14272
:1051000000F0A680636823F003035A1B0F2AF2DD28
:10511000B9493C6901F1080E744500F0B381636838
:1051200023F003035A1B0F2A00F39981002AC1F8C8
:1051300014E0C1F810E080F29E80B3F5007F80F0AB
:105140006781DB0803F1010C01229B1002FA03F3D3
:105150004A6851F83C80C4F8088001EBCC091A4336
:10516000A9F10803E3604A6041F83C40C8F80C40EC
:10517000831001249C40944200F28A80144206D19C
:1051800020F003006400144200F10400FAD007EBA1
:10519000C009CC468046DCF80C108C4507D173E181
:1051A000002A80F28181C9688C4500F06D814B68CE
:1051B00023F003035A1B0F2AF2DD0C46D1F80CC072
:1051C00054F8088F4B1945F001054D6042F001017C
:1051D000C8F80CC03046CCF808807B613B61C3F84E
:1051E0000CE0C3F808E059609A5000F013FA1FE091
:1051F000102921D800F00CFA1025062302207E4F3A
:1052000007EB8303A3F108025C68944200F0458138
:105210006368E168A56823F00303234430465A68B5
:10522000E96042F001028D605A6000F0F3F9083441
:10523000204603B0BDE8F08F00240C2320463360E5
:1052400003B0BDE8F08F80234FF0400E3F2049E7C8
:1052500070465DE72344E1685A68A56842F00102A0
:10526000E96030468D605A6000F0D4F90834204679
:1052700003B0BDE8F08F234430465A6842F0010283
:105280005A6000F0C7F90834204603B0BDE8F08F3B
:10529000BC68636823F00308A84504D3C5EB080382
:1052A0000F2B00F38C80554BDFF860911A68D9F80A
:1052B000003001332A4404EB080A00F0608102F553
:1052C00080520F3222F47F6222F00F0211463046E4
:1052D000019200F0A1F9B0F1FF3F8346019A00F07E
:1052E0005881824500F2FC80454B1968DA4511442B
:1052F000196000F05381D9F80000DFF810E10130A7
:105300001BBFCAEB0B0A5144CEF800B019601BF06A
:10531000070100F01781C1F10800C1F580518344F5
:1053200008315A44C2F30B02C2EB01094946304628
:10533000019300F071F9431C019B00F03F81CBEB1E
:1053400000024A4442F001021968C7F808B0494413
:10535000BC42CBF804201960DFF8A49016D0B8F155
:105360000F0F40F2FD806268A8F10C0323F00703E1
:10537000E01802F001024FF0050E1A430F2B626095
:10538000C0F804E0C0F808E000F21C811D4BBC68C6
:105390001A68914288BF19601B4B1A689142626873
:1053A00088BF196022F003029542A2EB050301D8E1
:1053B0000F2B04DC304600F02DF9002438E7621989
:1053C00043F0010345F0010565603046BA60536063
:1053D00000F020F90834204603B0BDE8F08F142B0C
:1053E00071D9542B00F2A480280B00F16F0E4FEA04
:1053F0004E036E3076E600BF0C8CFF1FB893FF1F84
:10540000BC93FF1FB493FF1FB093FF1F1890FF1FA3
:105410005A0A042A5ED9142A00F2B38002F15C0110
:1054200049005B3207EB810C57F82110DFF8DC8173
:10543000ACF1080C8C4500F088804A6822F0030229
:10544000934202D289688C45F7D1D1F80CC07A68B2
:10545000C4F80CC0A160CCF80840CC6088E66319A1
:1054600042F0010745F00105656030464B610B6174
:10547000C3F80CE0C3F808E05F609A50083400F00D
:10548000C9F8D5E64A6873E608F1010818F0030F79
:105490000CF1080C7FF47FAE30E0DC68A34208BF5B
:1054A00002303FF435AEB3E60B440C465A68C96887
:1054B00054F8085F42F001025A603046E9608D609E
:1054C00000F0A8F8B4E603F15C0E03F15B004FEACC
:1054D0004E0307E69A0902F1390149003832A1E783
:1054E000BC424A4B3FF400AF9C68626822F0030262
:1054F0005AE759F80839994540F0828010F0030FB7
:1055000000F1FF30F5D17B6823EA04037B6064007F
:105510009C423FF6BDAE002C3FF4BAAE1C42404662
:105520007FF435AE64001C4200F10400FAD02EE690
:10553000B3F5AA7F18D8E80B00F1780E4FEA4E03B6
:105540007730CFE54FF48051EBE60121D8F80430F5
:10555000921001FA02F21A43C8F80420614677E774
:105560000123CBF8043025E740F25452934220D86F
:10557000A80C00F17D0E4FEA4E037C30B2E51032EC
:10558000A4E6542A26D81A0B02F16F0149006E32A4
:1055900048E7BC68626822F0030205E7CAF30B0023
:1055A00000287FF4A8AE4244BB6842F001025A6072
:1055B000ECE6FE234FF07F0E7E2093E501224FF0B4
:1055C0000009C1E604F10801304600F0A9F8D9F855
:1055D0000010DBE6B2F5AA7F05D8DA0B02F17801FC
:1055E000490077321EE740F254518A4205D89A0C9E
:1055F00002F17D0149007C3214E7FE217E2211E791
:105600007B6884E7E808431C5B00F8E50C8CFF1F0F
:10561000704700BF704700BF38B5074C00230546F0
:1056200008462360FBF710FF431C00D038BD2368F9
:10563000002BFBD02B6038BDF893FF1F024B13B13A
:10564000024800F005B87047000000005D560000F9
:10565000002301461A46184600F04AB938B5074DEE
:10566000074C2C1BA41005D0013C55F8043D98476D
:10567000002CF9D1BDE8384000F048BB0000000024
:1056800000000000F8B5234F0C460646FFF7C0FFA8
:10569000BB685D6825F00305291B01F6EF7121F455
:1056A0007F6121F00F01A1F58054B4F5805F07DB25
:1056B00000213046FFF7B0FFBB682B44984204D06E
:1056C0003046FFF7A7FF0020F8BD61423046FFF7E4
:1056D000A3FF01300DD0104BBA6819682D1B45F09F
:1056E00001053046091B55601960FFF793FF012043
:1056F000F8BD00213046FFF78FFFBA68831A0F2BE1
:10570000DEDD064C0449246843F00103001B5360AE
:105710000860D5E70C8CFF1FBC93FF1F1890FF1F7C
:10572000002945D02DE9F0410D468046FFF770FF76
:1057300055F8047C6A4927F00103A5F10804E21832
:105740008E685068B24220F0030062D0FE075060BD
:105750000BD455F8087CE41B01F1080EA5687545CB
:105760003B446FD0E768EF60BD6015186D68ED07CA
:1057700042D543F001026260E350B3F5007F18D2D6
:10578000DB085A1C4D6851F83270A76001209B104D
:1057900000FA03F301EBC2001D430838E0604D60DE
:1057A00041F83240FC604046BDE8F041FFF732BFAF
:1057B00070475A0A042A53D89A0902F139077F0020
:1057C00002F1380501EB870051F8272044490838D9
:1057D00090424DD0516821F003018B4202D2926871
:1057E0009042F7D1D068E060A2608460D460404607
:1057F000BDE8F041FFF70EBF95683A4FBD42034444
:105800003FD0D068E86043F0010285606260E350F9
:10581000B3E7FF07034407D455F8082CA41A134430
:10582000A068E268C26090602F4A126843F00100ED
:10583000934260608C60B6D32C4B40461968FFF7EA
:1058400021FFB0E711184968C90744D49168D268AC
:10585000CA60034443F0010091606060E350A2E736
:10586000142A17D802F15C077F0002F15B05A9E753
:10587000AA104B68012505FA02F213434B60024659
:10588000B1E743F001024C610C61E560A560626024
:10589000E35088E7542A06D81A0B02F16F077F00FD
:1058A00002F16E058EE7B2F5AA7F06D8DA0B02F197
:1058B00078077F0002F1770584E740F25450824276
:1058C00006D89A0C02F17D077F0002F17C0579E78A
:1058D000FE277E2576E743F001026260E35062E72F
:1058E0000C8CFF1F148CFF1F1490FF1FB893FF1F19
:1058F0002DE9F047254C2568D5F8484106468846ED
:1059000092469946C4B360681F2817DC431C76B1E1
:1059100004EB80050122C5F888A0D4F888118240E4
:105920001143022EC4F88811C5F808911ED0023028
:10593000636044F820800020BDE8F087144B03B377
:105940004FF4C870FFF7A4FB0446D0B1D5F8483136
:10595000002780E88800C5F8484138460123C4F88C
:105960008871C4F88C71002EE1D0D1E7D4F88C1185
:105970000A43C4F88C21DAE705F5A674C5F8484156
:10598000C1E74FF0FF30BDE8F08700BFF05C0000DA
:105990009150000041766172616765204144433A4D
:1059A00020000000546865726D6973746F72207214
:1059B0006573697374616E63653A2000566F6C7429
:1059C000616765200000000054656D706572617448
:1059D0007572652066726F6D20766F6C7461676595
:1059E0002045513A20000000202A430054656D7084
:1059F000657261747572652066726F6D2072657371
:105A0000697374616E63652045513A20000000009F
:105A100052454400475245454E000000424C554512
:105A20000000000041444300206572726F723A200A
:105A30000000000043616C6962726174696F6E00FE
:105A400057726F6E672070696E000000416E616C66
:105A50006F67207265616400436F6D706172697376
:105A60006F6E0000416E616C6F67206469666665E9
:105A700072656E7469616C2072656164000000007B
:105A8000436F6E74696E756F757320726561640023
:105A9000436F6E74696E756F7573206469666665B1
:105AA00072656E7469616C2072656164000000004B
:105AB00057726F6E672041444300000053796E6354
:105AC00068726F6E6F757300556E6B6E6F776E00D8
:105AD000206572726F722E0022032480050E080961
